S01E00004C454B544F525F4D494B524F434F4E54524F4C4C45522E7372656350
S113000033C0000067C000004AC0000048C00000C0
S113001046C0000044C0000042C0000040C00000D0
S11300203EC000003CC000003AC0000038C00000E0
S113003036C000008CC0000032C0000030C0000098
S11300402EC000002CC000002AC0000028C0000000
S113005026C0000024C0000022C0000020C0000010
S11300601EC000001CC0000011241FBECFEFD8E04A
S1130070DEBFCDBF11E0A0E0B1E0E2ECF1E002C0F0
S113008005900D92A030B107D9F721E0A0E0B1E0CE
S113009001C01D92A430B207E1F702D090C0B0CFE6
S11300A05098589A83E080936900E89A389A10929D
S11300B0C100209A7894409A8FE99FE00197F1F764
S11300C000C0000040988FE99FE00197F1F700C05D
S11300D00000F1CF1F920F920FB60F9211242F93AD
S11300E03F934F935F936F937F938F939F93AF93BC
S11300F0BF93EF93FF9381E611D0FF91EF91BF91EE
S1130100AF919F918F917F916F915F914F913F91AB
S11301102F910F900FBE0F901F90189528982AE2E8
S11301202A95F1F700C098E080FF02C0289A01C028
S113013028982AE22A95F1F700C086959150A1F7F4
S1130140289A8AE28A95F1F700C0289808951F92A8
S11301500F920FB60F9211242F938F939F93EF93C7
S1130160FF93809102019091030101969093030102
S11301708093020186EF92EC909385008093840033
S113018080910201909103018830974071F481E3DA
S113019090E090930101809300011092030110926A
S11301A00201EFE6F0E080811082FF91EF919F91D0
S11301B08F912F910F900FBE0F901F901895F89468
S10501C0FFCF6B
S9030000FC
