S01E00004C454B544F525F4D494B524F434F4E54524F4C4C45522E7372656350
S1130000ADC000006FC70000C9C00000C7C0000039
S1130010C5C00000C3C00000C1C00000BFC00000D4
S1130020BDC00000BBC00000B9C00000B7C00000E4
S1130030B5C00000B3C00000B1C00000AFC00000F4
S1130040ADC00000ABC00000A9C00000A7C0000004
S113005061C40000A3C00000A1C000009FC0000054
S11300609DC000009BC0000099C0000097C0000024
S113007095C0000093C0000091C000008FC0000034
S11300808DC000008BC0000089C0000087C0000044
S113009085C0000083C0000081C000007FC0000054
S11300A07DC000007BC0000079C0000077C0000064
S11300B075C0000073C0000071C000006FC0000074
S11300C06DC000006BC0000069C0000067C0000084
S11300D065C0000063C0000061C000005FC0000094
S11300E05DC00000FF020D031B0329033703450312
S11300F053036103A003710381039103B103BE039E
S1130100CB03D803E503F203FF030C0444041A04ED
S113011028043604F504030511051F052D053B05C8
S1130120490557059605670577058705A705BE05A3
S1130130D505EC0503061A0631064806A80660062E
S113014078069006D406E106EE06FB0608071507B6
S113015022072F076A073E074D075C0711241FBEBD
S1130160CFEFD1E2DEBFCDBF00E00CBF12E0A0E0D4
S1130170B2E0E4EAF1E100E00BBF02C007900D92A7
S1130180AA30B107D9F722E0AAE0B2E001C01D927B
S1130190A832B207E1F71CD10C94D00831CF80917A
S11301A01E02803311F580911D028033F1F4809199
S11301B00C0290910D02892B49F4809106029091D2
S11301C00702019719F010922102A7C081E08093E1
S11301D0210281E48093220210920D0210920C02FB
S11301E010920B0210920A0298C080911E02803372
S11301F029F580911D02813309F580910C029091BB
S11302000D02019749F4809106029091070201972B
S113021019F01092210281C05BD381E08093210206
S113022086E48093220281E090E090930D02809313
S11302300C0210920B0210920A026FC080911E02EF
S1130240813309F043C080911D02803309F03EC020
S113025080910C0290910D020A9731F5809106026B
S113026090910702019701F11092210225D3892B65
S113027009F053C080910A0290910B02019709F48E
S11302804CC081E08093210281E4809322028AE0C1
S113029090E090930D0280930C0281E090E09093A3
S11302A00B0280930A0239C01ED381E0809321029D
S11302B082E4809322028AE090E090930D0280937E
S11302C00C0210920B0210920A0227C080911E02A7
S11302D0813319F580911D028133F9F480910C0268
S11302E090910D020B9749F48091060290910702B8
S11302F0019719F01092210210C081E0809321022D
S113030082E4809322028BE090E090930D0280932C
S11303100C0210920B0210920A0280910602909134
S11303200702019721F41092070210920602089521
S11303301092900081E0809391008FE791EC90936C
S1130340950080939400C09BFECF1092910081E0B1
S113035088BB08951092200210921F02279AE8DFAA
S1130360279808951092200210921F0280911F0274
S113037090912002892BD1F3089580E884B982E416
S113038084BD91E095BD87BD08951092A00081E0E1
S11303908093A10080EC99EF9093A5008093A40032
S11303A0C89BFECF1092A10081E089BB0895CF9332
S11303B0DF93D82FC8E0D6DFBBDFBADFE6DFDD236B
S11303C00CF4C8DFDD0FC150B1F7DF91CF91089570
S11303D0CF93DF9300D0CDB7DEB762E070E082E464
S11303E0E6D063E070E082E4D6D264E070E082E4B8
S11303F0B1D471D5C2DF78940F2EF1E49F2EF02D85
S1130400CCD0C1D0CCDE809121028130C9F7998251
S1130410809122028A831B82CE01019628D07C011E
S11304206894AA24A1F8B12C8EEEC1DF670100E024
S113043010E006C0F60181916F01B9DF0F5F1F4F15
S1130440F70101900020E9F73197EE19FF090E1723
S11304501F0780F36DDF05D0F1E0AF1AB10821F773
S1130460CFCF80910E0290910F020AC608958F9209
S11304709F92AF92BF92CF92DF92EF92FF920F932F
S11304801F93CF93DF9322E08830920709F46CC066
S1130490EC01FC0101900020E9F73197E81BF90B0E
S11304A05F01CF01880F991F61E070E0039636D594
S11304B090930F0280930E021A141B040CF056C082
S11304C07E01A0E0B0E060E070E028E030E001E010
S11304D010E00F2EF7E09F2EF02D812CF701C19133
S11304E07F0147E050E0D0E0215031092830310548
S11304F020F06F5F7F4F292D382DFE01042E02C09E
S1130500F595E7950A94E2F7E0FF12C0FB01EA0FC4
S1130510FB1FE80FF91F6801022E02C0CC0CDD1C82
S11305200A94E2F7D080CD28C0822150310911C04D
S1130530FB01EA0FFB1FE80FF91F21503109680185
S1130540022E02C0CC0CDD1C0A94E2F7D080CD2828
S1130550C0824150510940F6615071091196AA16A2
S1130560BB0609F0BBCF02C080E090E0DF91CF91E1
S11305701F910F91FF90EF90DF90CF90BF90AF90BD
S11305809F908F900895D3D2813319F480931E02E3
S1130590089580E380931E020895D3D0813319F423
S11305A080931D02089580E380931D0208959FEBBC
S11305B0980F9C3020F081E48093120202C0809353
S11305C012026830710538F081E090E090931102D6
S11305D08093100204C07093110260931002E091A2
S11305E012028E2F90E0FC01E154F109EC30F10588
S11305F008F0A6C08827EE58FF4F8F4F87C421B15B
S113060081E090E00090100202C0880F991F0A94C4
S1130610E2F78095822381B9089524B181E090E0C6
S11306200090100202C0880F991F0A94E2F7809587
S1130630822384B9089527B181E090E000901002EC
S113064002C0880F991F0A94E2F78095822387B924
S113065008952AB181E090E00090100202C0880F52
S1130660991F0A94E2F7809582238AB908952DB1DF
S113067081E090E00090100202C0880F991F0A9454
S1130680E2F7809582238DB9089520B381E090E04C
S11306900090100202C0880F991F0A94E2F7809517
S11306A0822380BB089523B381E090E00090100280
S11306B002C0880F991F0A94E2F78095822383BBB6
S11306C00895E1E0F1E0208181E090E000901002E3
S11306D002C0880F991F0A94E2F7809582238083D1
S11306E00895E4E0F1E0208181E090E000901002C0
S11306F002C0880F991F0A94E2F7809582238083B1
S11307000895E7E0F1E0208181E090E0009010029C
S113071002C0880F991F0A94E2F780958223808390
S11307200895EAE0F1E0208181E090E00090100279
S113073002C0880F991F0A94E2F780958223808370
S11307400895E09112028E2F90E0FC01E154F1092A
S1130750EC30F10508F098C08827E258FF4F8F4F1E
S1130760D5C380B190E00090100202C095958795A2
S11307700A94E2F780FD8AC080E3089583B190E093
S11307800090100202C0959587950A94E2F780FDC7
S11307907FC080E3089586B190E00090100202C00B
S11307A0959587950A94E2F780FD74C080E30895D7
S11307B089B190E00090100202C0959587950A9443
S11307C0E2F780FD69C080E308958CB190E0009069
S11307D0100202C0959587950A94E2F780FD5EC0E9
S11307E080E308958FB190E00090100202C09595C7
S11307F087950A94E2F780FD53C080E3089582B39D
S113080090E00090100202C0959587950A94E2F753
S113081080FD48C080E308958091000190E000903D
S1130820100202C0959587950A94E2F780FD3CC0BA
S113083080E308958091030190E00090100202C0CB
S1130840959587950A94E2F780FD30C080E308957A
S11308508091060190E00090100202C09595879562
S11308600A94E2F780FD24C080E308958091090191
S113087090E00090100202C0959587950A94E2F7E3
S113088080FD18C080E3089580E3089581E308950E
S113089081E3089581E3089581E3089581E3089550
S11308A081E3089581E3089581E3089581E3089540
S11308B081E3089581E30895209113023091140295
S11308C081E090E02033310511F480E090E0089558
S11308D080E390E090931402809313021092160226
S11308E010921502089581E390E09093140280938E
S11308F013021092800085E08093810086EF92ECD1
S11309009093850080938400EFE6F0E0808181601D
S1130910808308951F920F920FB60F9211240BB685
S11309200F922F933F934F935F936F937F938F9384
S11309309F93AF93BF93EF93FF9380911502909190
S113094016020196909316028093150286EF92EC9C
S113095090938500809384008091150290911602F3
S11309608835924029F4B4DFEFE6F0E0808110820C
S1130970FF91EF91BF91AF919F918F917F916F9173
S11309805F914F913F912F910F900BBE0F900FBE2F
S11309900F901F9018959FEB980F9C3010F489349A
S11309A021F481E48093190202C080931902683013
S11309B071053CF085E090E0909318028093170253
S11309C004C07093180260931702E09119028E2FED
S11309D090E0FC01E154F109EC30F10508F0A6C007
S11309E08827E657FF4F8F4F91C221B181E090E0F5
S11309F00090170202C0880F991F0A94E2F78095AD
S1130A00822381B9089524B181E090E00090170217
S1130A1002C0880F991F0A94E2F78095822384B953
S1130A20089527B181E090E00090170202C0880F7A
S1130A30991F0A94E2F78095822387B908952AB111
S1130A4081E090E00090170202C0880F991F0A9479
S1130A50E2F7809582238AB908952DB181E090E070
S1130A600090170202C0880F991F0A94E2F780953C
S1130A7082238DB9089520B381E090E0009017029D
S1130A8002C0880F991F0A94E2F78095822380BBE5
S1130A90089523B381E090E00090170202C0880F0C
S1130AA0991F0A94E2F78095822383BB0895E1E0BD
S1130AB0F1E0208181E090E00090170202C0880FED
S1130AC0991F0A94E2F78095822380830895E4E0D5
S1130AD0F1E0208181E090E00090170202C0880FCD
S1130AE0991F0A94E2F78095822380830895E7E0B2
S1130AF0F1E0208181E090E00090170202C0880FAD
S1130B00991F0A94E2F78095822380830895EAE08E
S1130B10F1E0208181E090E00090170202C0880F8C
S1130B20991F0A94E2F78095822380830895E091C7
S1130B3019028E2F90E0FC01E154F109EC30F1052B
S1130B4008F006C18827EA56FF4F8F4FDFC180B1F6
S1130B5090E00090170202C0959587950A94E2F7F9
S1130B6080FF06C081E380932302809123020895CD
S1130B7080E38093230280912302089583B190E05F
S1130B800090170202C0959587950A94E2F780FFBA
S1130B9006C081E38093230280912302089580E3B9
S1130BA08093230280912302089586B190E00090FF
S1130BB0170202C0959587950A94E2F780FF06C054
S1130BC081E38093230280912302089580E380933C
S1130BD0230280912302089589B190E000901702C6
S1130BE002C0959587950A94E2F780FF06C081E3D9
S1130BF08093230280912302089580E3809323024B
S1130C008091230208958CB190E00090170202C0F5
S1130C10959587950A94E2F780FF06C081E3809357
S1130C20230280912302089580E38093230280911C
S1130C30230208958FB190E00090170202C09595A9
S1130C4087950A94E2F780FF06C081E3809323022C
S1130C5080912302089580E38093230280912302EC
S1130C60089582B390E00090170202C0959587958D
S1130C700A94E2F780FF06C081E380932302809107
S1130C802302089580E38093230280912302089530
S1130C908091000190E00090170202C0959587951D
S1130CA00A94E2F780FF06C081E3809323028091D7
S1130CB02302089580E38093230280912302089500
S1130CC08091030190E00090170202C095958795EA
S1130CD00A94E2F780FF06C081E3809323028091A7
S1130CE02302089580E380932302809123020895D0
S1130CF08091060190E00090170202C095958795B7
S1130D000A94E2F780FF06C081E380932302809176
S1130D102302089580E3809323028091230208959F
S1130D208091090190E00090170202C09595879583
S1130D300A94E2F780FF06C081E380932302809146
S1130D402302089580E3809323028091230208956F
S1130D5080E308959FEB980F9C3010F4893421F4BC
S1130D6081E480931C0202C080931C0268307105E8
S1130D7038F083E090E090931B0280931A0204C041
S1130D8070931B0260931A02E0911C028E2F90E074
S1130D90FC01E154F109EC30F10508F09BC088270F
S1130DA0EE55FF4F8F4FB2C021B181E090E000902B
S1130DB01A0202C0880F991F0A94E2F7822B81B9A4
S1130DC0089524B181E090E000901A0202C0880FD7
S1130DD0991F0A94E2F7822B84B9089527B181E020
S1130DE090E000901A0202C0880F991F0A94E2F75B
S1130DF0822B87B908952AB181E090E000901A020D
S1130E0002C0880F991F0A94E2F7822B8AB90895C9
S1130E102DB181E090E000901A0202C0880F991F62
S1130E200A94E2F7822B8DB9089520B381E090E013
S1130E3000901A0202C0880F991F0A94E2F7822BCD
S1130E4080BB089523B381E090E000901A0202C0B1
S1130E50880F991F0A94E2F7822B83BB0895E1E07F
S1130E60F1E0208181E090E000901A0202C0880F36
S1130E70991F0A94E2F7822B80830895E4E0F1E05D
S1130E80208181E090E000901A0202C0880F991F2F
S1130E900A94E2F7822B80830895E7E0F1E0208151
S1130EA081E090E000901A0202C0880F991F0A9412
S1130EB0E2F7822B80830895EAE0F1E0208181E06B
S1130EC090E000901A0202C0880F991F0A94E2F77A
S1130ED0822B808308955098589A83E08093690008
S1130EE0E89A08951F920F920FB60F9211248F93D0
S1130EF09F9381E090E09093200280931F029F9142
S1130F008F910F900FBE0F901F901895EE0FFF1F3B
S1130F10881F8BBF0790F691E02D19940F931F93B0
S1130F20CF93DF93869F8001879F100D969F100DAE
S1130F301124C8010DD0EC01009721F0A80160E054
S1130F4070E027D1CE01DF91CF911F910F910895C9
S1130F500F931F93CF93DF938230910510F482E0B7
S1130F6090E0E0912602F091270220E030E0A0E03A
S1130F70B0E0309719F14081518102811381481703
S1130F805907C8F08417950769F4109731F0129641
S1130F900C93129713961C9327C000932602109368
S1130FA0270222C02115310519F04217530718F4FE
S1130FB09A01BD01EF01DF01F801DBCF21153105F5
S1130FC0F9F0281B390B2430310580F48A819B8188
S1130FD06115710521F0FB019383828304C0909312
S1130FE0270280932602FE01329644C0FE01E20FDE
S1130FF0F31F8193919322503109398328833AC096
S11310002091240230912502232B41F420910202E5
S11310103091030230932502209324022091000290
S1131020309101022115310541F42DB73EB74091AD
S1131030040250910502241B350BE0912402F09127
S11310402502E217F307A0F42E1B3F0B28173907DC
S113105078F0AC014E5F5F4F2417350748F04E0F10
S11310605F1F50932502409324028193919302C001
S1131070E0E0F0E0CF01DF91CF911F910F9108954F
S1131080CF93DF93009709F481C0FC013297138258
S11310901282A0912602B0912702109781F4208138
S11310A03181820F931F2091240230912502281749
S11310B0390751F5F0932502E093240267C0ED014E
S11310C020E030E0CE17DF0740F44A815B819E01C7
S11310D041155105F1F0EA01F5CFD383C283408174
S11310E05181840F951FC817D90759F488819981B4
S11310F0840F951F0296918380838A819B819383B9
S113110082832115310529F4F0932702E093260206
S11311103DC0E901FB83EA8349915991C40FD51F6E
S1131120EC17FD0761F480819181840F951F02966D
S1131130E90199838883828193819B838A83E0E098
S1131140F0E012968D919C911397009719F0FD0190
S1131150DC01F7CF8D919C9111979D012E5F3F4F3C
S1131160820F931F209124023091250228173907FA
S113117069F4309729F4109227021092260202C0D3
S113118013821282B0932502A0932402DF91CF919F
S11311900895DC0101C06D9341505040E0F708957B
S10711A0F894FFCFED
S10D11A400002802200001000000F2
S9030000FC
