S01E00004C454B544F525F4D494B524F434F4E54524F4C4C45522E7372656350
S1130000B9C000000C94C808D5C00000D3C00000DB
S1130010D1C00000CFC00000CDC00000CBC00000A4
S1130020C9C00000C7C00000C5C00000C3C00000B4
S1130030C1C00000BFC00000BDC00000BBC00000C4
S1130040B9C00000B7C00000B5C00000B3C00000D4
S113005072C40000AFC00000ADC00000ABC000001F
S1130060A9C00000A7C00000A5C00000A3C00000F4
S1130070A1C000009FC000009DC000009BC0000004
S113008099C0000097C0000095C0000093C0000014
S113009091C000008FC000008DC000008BC0000024
S11300A089C0000087C0000085C0000083C0000034
S11300B081C000007FC000007DC000007BC0000044
S11300C079C0000077C0000075C0000073C0000054
S11300D071C000006FC000006DC000006BC0000064
S11300E069C00000D502E102ED02F9020503110323
S11300F01D03290360033703450353037103880376
S11301009F03B603CD03E403FB03120472042A0421
S113011042045A0402050E051A05260532053E0559
S11301204A0556058D056405720580059E05B505CD
S1130130CC05E305FA05110628063F069F06570677
S11301406F068706C706D406E106EE06FB06080717
S1130150150722075D07310740074F076F078C0714
S1130160A907C607E30700081D083A08BD085B088D
S11301707C089D0811241FBECFEFD1E2DEBFCDBFA6
S113018000E00CBF12E0A0E0B2E0E8E5F4E100E03A
S11301900BBF02C007900D92AA30B107D9F722E035
S11301A0AAE0B2E001C01D92A732B207E1F794D0F1
S11301B00C942A0A25CF80911902803399F48091F6
S11301C01602803379F4109218021092170281E01B
S11301D080931A0286E580931B02109218021092F3
S11301E017026FC080911902803301F580911602C5
S11301F08133E1F481E090E0909318028093170238
S11302008091060290910702019719F010921A0248
S1130210089581E080931A0284E580931B0281E0B3
S113022090E0909318028093170251C080911902B4
S1130230813301F5809116028033E1F48AE090E085
S113024090931802809317028091060290910702FE
S1130250019719F010921A02089581E080931A020E
S11302608FE480931B028AE090E0909318028093BD
S113027017022DC080911902813319F5809116025D
S11302808133F9F48BE090E0909318028093170285
S11302908091060290910702019719F010921A02B8
S11302A0089522D3892B09F42FD381E080931A0275
S11302B08FE480931B028BE090E09093180280936C
S11302C017028091060290910702019721F410927F
S11302D00702109206020895CF93DF9300D01F9275
S11302E0CDB7DEB762E070E082E439D163E070E05C
S11302F082E462D364E070E082E423D53FD778944B
S1130300198281E48A838B8380911B028C83D5D0EC
S1130310BBD051DF80911B028C83CE0102961FD08B
S11303207C016C0100E010E008C0F60181916F01CE
S113033089838981FFD00F5F1F4FF701019000204F
S1130340E9F73197EE19FF090E171F0770F701D06F
S1130350DECF80910A0290910B02ECC708958F9230
S11303609F92AF92BF92CF92DF92EF92FF920F9340
S11303701F93CF93DF9322E08830920709F46CC077
S1130380EC01FC0101900020E9F73197E81BF90B1F
S11303905F01CF01880F991F61E070E0039618D7C1
S11303A090930B0280930A021A141B040CF056C09B
S11303B07E01A0E0B0E060E070E028E030E001E021
S11303C010E00F2EF7E09F2EF02D812CF701C19144
S11303D07F0147E050E0D0E0215031092830310559
S11303E020F06F5F7F4F292D382DFE01042E02C0AF
S11303F0F595E7950A94E2F7E0FF12C0FB01EA0FD6
S1130400FB1FE80FF91F6801022E02C0CC0CDD1C93
S11304100A94E2F7D080CD28C0822150310911C05E
S1130420FB01EA0FFB1FE80FF91F21503109680196
S1130430022E02C0CC0CDD1C0A94E2F7D080CD2839
S1130440C0824150510940F6615071091196AA16B3
S1130450BB0609F0BBCF02C080E090E0DF91CF91F2
S11304601F910F91FF90EF90DF90CF90BF90AF90CE
S11304709F908F90089580911902803311F41EC5C6
S1130480089581E31BC5089549D3813321F48093F2
S11304901902F1CF089580E380931902ECCF0895F7
S11304A080911602813331F41FD2892B19F480E331
S11304B005C5089581E302C5089503D1813321F46C
S11304C080931602EDCF089580E380931602E8CF5F
S11304D008951092900081E0809391008FE791EC51
S11304E09093950080939400C09903C0289AC09B70
S11304F0FDCF1092910081E088BB08951092900086
S113050081E0809391008FE791EC90939500809324
S11305109400C09903C02898C09BFDCF109291000D
S113052081E088BB089580911C0290911D02892B63
S1130530D1F30895CF93DF93D82FF5DFDFDFC8E041
S1130540D0FF03C0F0DFC5DF02C0EDDFD7DFD695F3
S1130550C150B1F7E8DFBDDFDF91CF9108959FEB84
S1130560980F9C3010F4893439F481E480930E029E
S11305706830710524F419C06830710534F082E0E4
S113058090E090930D0280930C02E0910E028E2F66
S113059090E0FC01E154F109EC30F10508F090C061
S11305A08827EE58FF4F8F4F0BC621B181E090E0B2
S11305B002C0880F991F6A95E2F78095822381B95A
S11305C0089524B181E090E002C0880F991F6A95D4
S11305D0E2F78095822384B9089527B181E090E001
S11305E002C0880F991F6A95E2F78095822387B924
S11305F008952AB181E090E002C0880F991F6A959E
S1130600E2F7809582238AB908952DB181E090E0C4
S113061002C0880F991F6A95E2F7809582238DB9ED
S1130620089520B381E090E002C0880F991F6A9575
S1130630E2F78095822380BB089523B381E090E0A4
S113064002C0880F991F6A95E2F78095822383BBC5
S11306500895E1E0F1E0208181E090E002C0880F9C
S1130660991F6A95E2F78095822380830895E4E0D8
S1130670F1E0208181E090E002C0880F991F6A9523
S1130680E2F78095822380830895E7E0F1E02081FA
S113069081E090E002C0880F991F6A95E2F7809587
S11306A0822380830895EAE0F1E0208181E090E0F4
S11306B002C0880F991F6A95E2F780958223808390
S11306C00895E0910E028E2F90E0FC01E154F109AF
S11306D0EC30F10508F006C18827E258FF4F8F4F30
S11306E06FC580B190E000900C0202C0959587958B
S11306F00A94E2F780FF06C081E380931E02809192
S11307001E02089580E380931E0280911E020895C4
S113071083B190E000900C0202C0959587950A94ED
S1130720E2F780FF06C081E380931E0280911E02DF
S1130730089580E380931E0280911E02089586B17D
S113074090E000900C0202C0959587950A94E2F718
S113075080FF06C081E380931E0280911E020895EB
S113076080E380931E0280911E02089589B190E077
S113077000900C0202C0959587950A94E2F780FFD9
S113078006C081E380931E0280911E02089580E3D7
S113079080931E0280911E0208958CB190E0009017
S11307A00C0202C0959587950A94E2F780FF06C073
S11307B081E380931E0280911E02089580E380935A
S11307C01E0280911E0208958FB190E000900C02E9
S11307D002C0959587950A94E2F780FF06C081E3ED
S11307E080931E0280911E02089580E380931E026E
S11307F080911E02089582B390E000900C0202C022
S1130800959587950A94E2F780FF06C081E380936B
S11308101E0280911E02089580E380931E0280913F
S11308201E0208958091000190E000900C0202C025
S1130830959587950A94E2F780FF06C081E380933B
S11308401E0280911E02089580E380931E0280910F
S11308501E0208958091030190E000900C0202C0F2
S1130860959587950A94E2F780FF06C081E380930B
S11308701E0280911E02089580E380931E028091DF
S11308801E0208958091060190E000900C0202C0BF
S1130890959587950A94E2F780FF06C081E38093DB
S11308A01E0280911E02089580E380931E028091AF
S11308B01E0208958091090190E000900C0202C08C
S11308C0959587950A94E2F780FF06C081E38093AB
S11308D01E0280911E02089580E380931E0280917F
S11308E01E02089580E3089580910F0290911002F2
S11308F0089580E390E09093100280930F02109289
S1130900120210921102089581E390E09093100274
S113091080930F021092800085E08093810086EF1F
S113092092EC9093850080938400EFE6F0E0808160
S11309308160808308951F920F920FB60F92112445
S11309400BB60F922F933F934F935F936F937F93C5
S11309508F939F93AF93BF93EF93FF938091110273
S1130960909112020196909312028093110286EFE5
S113097092EC909385008093840080911102909171
S113098012028835924029F4B4DFEFE6F0E080816A
S11309901082FF91EF91BF91AF919F918F917F91C1
S11309A06F915F914F913F912F910F900BBE0F90DC
S11309B00FBE0F901F9018959FEB980F9C3010F46A
S11309C0893439F481E4809321026830710524F478
S11309D019C06830710534F081E090E090932002F2
S11309E080931F02E09121028E2F90E0FC01E154DC
S11309F0F109EC30F10508F090C08827E657FF4F65
S1130A008F4FDEC321B181E090E002C0880F991FAF
S1130A106A95E2F78095822381B9089524B181E033
S1130A2090E002C0880F991F6A95E2F780958223AF
S1130A3084B9089527B181E090E002C0880F991F1E
S1130A406A95E2F78095822387B908952AB181E0F7
S1130A5090E002C0880F991F6A95E2F7809582237F
S1130A608AB908952DB181E090E002C0880F991FE2
S1130A706A95E2F7809582238DB9089520B381E0C9
S1130A8090E002C0880F991F6A95E2F7809582234F
S1130A9080BB089523B381E090E002C0880F991FC2
S1130AA06A95E2F78095822383BB0895E1E0F1E043
S1130AB0208181E090E002C0880F991F6A95E2F7D7
S1130AC08095822380830895E4E0F1E0208181E031
S1130AD090E002C0880F991F6A95E2F780958223FF
S1130AE080830895E7E0F1E0208181E090E002C096
S1130AF0880F991F6A95E2F7809582238083089571
S1130B00EAE0F1E0208181E090E002C0880F991FC3
S1130B106A95E2F78095822380830895E09121020B
S1130B208E2F90E0FC01E154F109EC30F10508F05E
S1130B3006C18827EA56FF4F8F4F42C380B190E029
S1130B4000901F0202C0959587950A94E2F780FFF2
S1130B5006C081E38093220280912202089580E3FB
S1130B608093220280912202089583B190E0009044
S1130B701F0202C0959587950A94E2F780FF06C08C
S1130B8081E38093220280912202089580E380937E
S1130B90220280912202089586B190E000901F0203
S1130BA002C0959587950A94E2F780FF06C081E319
S1130BB08093220280912202089580E3809322028E
S1130BC080912202089589B190E000901F0202C032
S1130BD0959587950A94E2F780FF06C081E3809398
S1130BE0220280912202089580E380932202809160
S1130BF0220208958CB190E000901F0202C09595E6
S1130C0087950A94E2F780FF06C081E3809322026D
S1130C1080912202089580E380932202809122022F
S1130C2008958FB190E000901F0202C095958795BA
S1130C300A94E2F780FF06C081E380932202809148
S1130C402202089580E38093220280912202089573
S1130C5082B390E000901F0202C0959587950A9494
S1130C60E2F780FF06C081E3809322028091220292
S1130C70089580E380932202809122020895809156
S1130C80000190E000901F0202C0959587950A9498
S1130C90E2F780FF06C081E3809322028091220262
S1130CA0089580E380932202809122020895809126
S1130CB0030190E000901F0202C0959587950A9465
S1130CC0E2F780FF06C081E3809322028091220232
S1130CD0089580E3809322028091220208958091F6
S1130CE0060190E000901F0202C0959587950A9432
S1130CF0E2F780FF06C081E3809322028091220202
S1130D00089580E3809322028091220208958091C5
S1130D10090190E000901F0202C0959587950A94FE
S1130D20E2F780FF06C081E38093220280912202D1
S1130D30089580E38093220280912202089580E343
S1130D4008959FEB980F9C3010F4893439F481E4B2
S1130D50809315026830710520F419C0683071055C
S1130D6030F081E090E09093140280931302E091BC
S1130D7015028E2F90E0FC01E154F109EC30F105ED
S1130D8008F09BC08827EE55FF4F8F4F19C221B141
S1130D9081E090E00090130202C0880F991F0A942A
S1130DA0E2F7822B81B9089524B181E090E00090AC
S1130DB0130202C0880F991F0A94E2F7822B84B9A8
S1130DC0089527B181E090E00090130202C0880FDB
S1130DD0991F0A94E2F7822B87B908952AB181E01A
S1130DE090E00090130202C0880F991F0A94E2F762
S1130DF0822B8AB908952DB181E090E0009013020E
S1130E0002C0880F991F0A94E2F7822B8DB90895C6
S1130E1020B381E090E00090130202C0880F991F74
S1130E200A94E2F7822B80BB089523B381E090E01B
S1130E300090130202C0880F991F0A94E2F7822BD4
S1130E4083BB0895E1E0F1E0208181E090E000902F
S1130E50130202C0880F991F0A94E2F7822B808341
S1130E600895E4E0F1E0208181E090E00090130235
S1130E7002C0880F991F0A94E2F7822B8083089599
S1130E80E7E0F1E0208181E090E00090130202C0ED
S1130E90880F991F0A94E2F7822B80830895EAE071
S1130EA0F1E0208181E090E00090130202C0880FFD
S1130EB0991F0A94E2F7822B80830895282FE091EA
S1130EC015028E2F90E0FC01E154F109EC30F1059C
S1130ED008F053C18827E255FF4F8F4F71C120336B
S1130EE071F422B181E090E00090130202C0880FF7
S1130EF0991F0A94E2F78095822382B9089522B15A
S1130F0081E090E00090130202C0880F991F0A94B8
S1130F10E2F7822B82B90895203371F425B181E080
S1130F2090E00090130202C0880F991F0A94E2F720
S1130F308095822385B9089525B181E090E00090E1
S1130F40130202C0880F991F0A94E2F7822B85B915
S1130F500895203371F428B181E090E000901302E9
S1130F6002C0880F991F0A94E2F78095822388B9FA
S1130F70089528B181E090E00090130202C0880F28
S1130F80991F0A94E2F7822B88B90895203371F4EB
S1130F902BB181E090E00090130202C0880F991FEA
S1130FA00A94E2F7809582238BB908952BB181E0EE
S1130FB090E00090130202C0880F991F0A94E2F790
S1130FC0822B8BB90895203371F42EB181E090E027
S1130FD00090130202C0880F991F0A94E2F78095CB
S1130FE082238EB908952EB181E090E0009013021F
S1130FF002C0880F991F0A94E2F7822B8EB90895D4
S1131000203371F421B381E090E00090130202C018
S1131010880F991F0A94E2F78095822381BB089573
S113102021B381E090E00090130202C0880F991F61
S11310300A94E2F7822B81BB0895203371F424B320
S113104081E090E00090130202C0880F991F0A9477
S1131050E2F78095822384BB089524B381E090E075
S11310600090130202C0880F991F0A94E2F7822BA2
S113107084BB0895203381F4E2E0F1E0208181E033
S113108090E00090130202C0880F991F0A94E2F7BF
S11310908095822380830895E2E0F1E0208181E05D
S11310A090E00090130202C0880F991F0A94E2F79F
S11310B0822B80830895203381F4E5E0F1E02081E0
S11310C081E090E00090130202C0880F991F0A94F7
S11310D0E2F78095822380830895E5E0F1E02081A2
S11310E081E090E00090130202C0880F991F0A94D7
S11310F0E2F7822B80830895203381F4E8E0F1E065
S1131100208181E090E00090130202C0880F991FB3
S11311100A94E2F78095822380830895E8E0F1E061
S1131120208181E090E00090130202C0880F991F93
S11311300A94E2F7822B80830895203381F4EBE054
S1131140F1E0208181E090E00090130202C0880F5A
S1131150991F0A94E2F78095822380830895EBE037
S1131160F1E0208181E090E00090130202C0880F3A
S1131170991F0A94E2F7822B808308955098589A15
S113118083E080936900E89A1092C100209A089540
S11311901F920F920FB60F9211248F939F9381E0A9
S11311A090E090931D0280931C0210921D021092F5
S11311B01C029F918F910F900FBE0F901F90189556
S11311C0EE0FFF1F881F8BBF0790F691E02D199437
S11311D00F931F93CF93DF93869F8001879F100DFA
S11311E0969F100D1124C8010DD0EC01009721F039
S11311F0A80160E070E027D1CE01DF91CF911F916B
S11312000F9108950F931F93CF93DF93823091052D
S113121010F482E090E0E0912502F091260220E0B3
S113122030E0A0E0B0E0309719F1408151810281B3
S1131230138148175907C8F08417950769F4109764
S113124031F012960C93129713961C9327C00093B7
S113125025021093260222C02115310519F04217E8
S1131260530718F49A01BD01EF01DF01F801DBCF48
S113127021153105F9F0281B390B2430310580F490
S11312808A819B816115710521F0FB01938382831F
S113129004C09093260280932502FE01329644C036
S11312A0FE01E20FF31F8193919322503109398398
S11312B028833AC02091230230912402232B41F445
S11312C020910202309103023093240220932302DE
S11312D020910002309101022115310541F42DB70E
S11312E03EB74091040250910502241B350BE09156
S11312F02302F0912402E217F307A0F42E1B3F0B04
S11313002817390778F0AC014E5F5F4F2417350773
S113131048F04E0F5F1F50932402409323028193A1
S1131320919302C0E0E0F0E0CF01DF91CF911F91F3
S11313300F910895CF93DF93009709F481C0FC01C6
S1131340329713821282A0912502B091260210973F
S113135081F420813181820F931F209123023091E7
S113136024022817390751F5F0932402E09323024D
S113137067C0ED0120E030E0CE17DF0740F44A817A
S11313805B819E0141155105F1F0EA01F5CFD3834C
S1131390C28340815181840F951FC817D90759F41E
S11313A088819981840F951F0296918380838A8115
S11313B09B81938382832115310529F4F0932602BE
S11313C0E09325023DC0E901FB83EA8349915991E9
S11313D0C40FD51FEC17FD0761F480819181840F40
S11313E0951F0296E90199838883828193819B8367
S11313F08A83E0E0F0E012968D919C911397009718
S113140019F0FD01DC01F7CF8D919C9111979D019D
S11314102E5F3F4F820F931F2091230230912402AD
S11314202817390769F4309729F41092260210928C
S1131430250202C013821282B0932402A0932302D5
S1131440DF91CF910895DC0101C06D93415050406C
S10B1450E0F70895F894FFCFC2
S10D1458000027022000010000003C
S9030000FC
