S01E00004C454B544F525F4D494B524F434F4E54524F4C4C45522E7372656350
S113000095C000006DC40000B0C00000AEC0000088
S1130010ACC00000AAC00000A8C00000A6C0000038
S1130020A4C00000A2C00000A0C000009EC0000048
S11300309CC000009AC0000098C0000096C0000058
S113004094C0000092C0000090C000008EC0000068
S113005072C200008AC0000088C0000086C0000090
S113006084C0000082C0000080C000007EC0000088
S11300707CC000007AC0000078C0000076C0000098
S113008074C0000072C0000070C000006EC00000A8
S11300906CC000006AC0000068C0000066C00000B8
S11300A064C0000062C0000060C000005EC00000C8
S11300B05CC000005AC0000058C0000056C00000D8
S11300C054C0000052C0000050C000004EC00000E8
S11300D04CC000004AC0000048C0000046C00000F8
S11300E044C00000EE01FC010A0218022602340298
S11300F0420250028F02600270028002060314035F
S1130100220330033E034C035A036803A703780316
S113011088039803D203DF03EC03F90306041304F2
S113012020042D0468043C044B045A0411241FBE0B
S1130130CFEFD1E2DEBFCDBF00E00CBF12E0A0E004
S1130140B2E0E0EAFBE000E00BBF02C007900D92D2
S1130150AC30B107D9F722E0ACE0B2E001C01D92A7
S1130160A732B207E1F751D019C54ACF10929000D7
S113017081E0809391008FE791EC909395008093B8
S11301809400C09BFECF1092910081E088BB08953B
S11301901092200210921F02279AE8DF27980895F0
S11301A01092200210921F0280911F02909120024F
S11301B0892BD1F308951092010182E484BD91E06A
S11301C095BD87BD08951092A00081E08093A100A1
S11301D080EC99EF9093A5008093A400C89BFECF78
S11301E01092A10081E089BB0895CF93DF93D82FAB
S11301F0C8E0D6DFBBDFBADFE6DFD0FDC9DFD695C6
S1130200C150B9F7DF91CF910895CF93DF931F9237
S1130210CDB7DEB762E070E082E4BAD063E070E0AC
S113022082E4CAD164E070E082E492D252D3C3DFA4
S1130230789480912202198286E092E01DD07C019C
S11302406C0100E010E006C0F60181916F01CDDF82
S11302500F5F1F4FF70101900020E9F73197EE1966
S1130260FF090E171F0780F301D0E6CF80910C021F
S113027090910D0203C408958F929F92AF92BF9202
S1130280CF92DF92EF92FF920F931F93CF93DF935E
S113029022E08A30920709F46CC0EC01FC01019061
S11302A00020E9F73197E81BF90B5F01CF01880FB4
S11302B0991F61E070E003962FD390930D02809311
S11302C00C021A141B040CF056C07E01A0E0B0E02E
S11302D060E070E028E030E001E010E00F2EF7E08D
S11302E09F2EF02D812CF701C1917F0147E050E052
S11302F0D0E0215031092830310520F06F5F7F4F65
S1130300292D382DFE01042E02C0F595E7950A9497
S1130310E2F7E0FF12C0FB01EA0FFB1FE80FF91F31
S11303206801022E02C0CC0CDD1C0A94E2F7D080D6
S1130330CD28C0822150310911C0FB01EA0FFB1FF7
S1130340E80FF91F215031096801022E02C0CC0CBC
S1130350DD1C0A94E2F7D080CD28C08241505109B7
S113036040F6615071091196AA16BB0609F0BBCF7D
S113037002C080E090E0DF91CF911F910F91FF9038
S1130380EF90DF90CF90BF90AF909F908F900895A3
S11303909FEB980F9C3010F4893439F481E48093F6
S11303A010026830710524F419C06830710534F006
S11303B082E090E090930F0280930E02E09110028D
S11303C08E2F90E0FC01E154F109EC30F10508F0C6
S11303D0A6C08827EE58FF4F8F4F96C221B181E007
S11303E090E000900E0202C0880F991F0A94E2F771
S11303F08095822381B9089524B181E090E0009032
S11304000E0202C0880F991F0A94E2F78095822396
S113041084B9089527B181E090E000900E0202C0F3
S1130420880F991F0A94E2F78095822387B908956B
S11304302AB181E090E000900E0202C0880F991F5B
S11304400A94E2F7809582238AB908952DB181E058
S113045090E000900E0202C0880F991F0A94E2F700
S1130460809582238DB9089520B381E090E00090B7
S11304700E0202C0880F991F0A94E2F78095822326
S113048080BB089523B381E090E000900E0202C087
S1130490880F991F0A94E2F78095822383BB0895FD
S11304A0E1E0F1E0208181E090E000900E0202C0E2
S11304B0880F991F0A94E2F7809582238083089518
S11304C0E4E0F1E0208181E090E000900E0202C0BF
S11304D0880F991F0A94E2F78095822380830895F8
S11304E0E7E0F1E0208181E090E000900E0202C09C
S11304F0880F991F0A94E2F78095822380830895D8
S1130500EAE0F1E0208181E090E000900E0202C078
S1130510880F991F0A94E2F78095822380830895B7
S113052080E390E0909312028093110210921402DF
S11305301092130208951F920F920FB60F92112476
S11305400BB60F922F933F934F935F936F937F93C9
S11305508F939F93AF93BF93EF93FF938091130275
S1130560909114020196909314028093130286EFE3
S113057092EC909385008093840080911302909173
S113058014028835924029F4CBDFEFE6F0E0808155
S11305901082FF91EF91BF91AF919F918F917F91C5
S11305A06F915F914F913F912F910F900BBE0F90E0
S11305B00FBE0F901F9018959FEB980F9C3010F46E
S11305C0893421F481E48093170202C080931702D6
S11305D0683071053CF081E090E0909316028093BE
S11305E0150204C07093160260931502E09117027D
S11305F08E2F90E0FC01E154F109EC30F10508F094
S1130600A6C08827E258FF4F8F4F7EC121B181E0F9
S113061090E00090150202C0880F991F0A94E2F737
S11306208095822381B9089524B181E090E00090FF
S1130630150202C0880F991F0A94E2F7809582235D
S113064084B9089527B181E090E00090150202C0BA
S1130650880F991F0A94E2F78095822387B9089539
S11306602AB181E090E00090150202C0880F991F22
S11306700A94E2F7809582238AB908952DB181E026
S113068090E00090150202C0880F991F0A94E2F7C7
S1130690809582238DB9089520B381E090E0009085
S11306A0150202C0880F991F0A94E2F780958223ED
S11306B080BB089523B381E090E00090150202C04E
S11306C0880F991F0A94E2F78095822383BB0895CB
S11306D0E1E0F1E0208181E090E00090150202C0A9
S11306E0880F991F0A94E2F78095822380830895E6
S11306F0E4E0F1E0208181E090E00090150202C086
S1130700880F991F0A94E2F78095822380830895C5
S1130710E7E0F1E0208181E090E00090150202C062
S1130720880F991F0A94E2F78095822380830895A5
S1130730EAE0F1E0208181E090E00090150202C03F
S1130740880F991F0A94E2F7809582238083089585
S11307509FEB980F9C3010F4893421F481E480934A
S11307601A0202C080931A026830710538F081E0E1
S113077090E0909319028093180204C070931902B8
S113078060931802E0911A028E2F90E0FC01E1546C
S1130790F109EC30F10508F09BC08827E657FF4FBC
S11307A08F4FB2C021B181E090E00090180202C0E6
S11307B0880F991F0A94E2F7822B81B9089524B116
S11307C081E090E00090180202C0880F991F0A94FB
S11307D0E2F7822B84B9089527B181E090E000907C
S11307E0180202C0880F991F0A94E2F7822B87B976
S11307F008952AB181E090E00090180202C0880FA9
S1130800991F0A94E2F7822B8AB908952DB181E0E9
S113081090E00090180202C0880F991F0A94E2F732
S1130820822B8DB9089520B381E090E000901802E6
S113083002C0880F991F0A94E2F7822B80BB0895A7
S113084023B381E090E00090180202C0880F991F42
S11308500A94E2F7822B83BB0895E1E0F1E0208162
S113086081E090E00090180202C0880F991F0A945A
S1130870E2F7822B80830895E4E0F1E0208181E0B7
S113088090E00090180202C0880F991F0A94E2F7C2
S1130890822B80830895E7E0F1E0208181E090E0FD
S11308A00090180202C0880F991F0A94E2F7822B65
S11308B080830895EAE0F1E0208181E090E00090F7
S11308C0180202C0880F991F0A94E2F7822B8083D2
S11308D008955098589A83E080936900E89A08959F
S11308E01F920F920FB60F9211248F939F9381E062
S11308F090E09093200280931F029F918F910F901C
S11309000FBE0F901F901895EE0FFF1F881F8BBF0F
S11309100790F691E02D19940F931F93CF93DF93D3
S1130920869F8001879F100D969F100D1124C8018A
S11309300DD0EC01009721F0A80160E070E027D110
S1130940CE01DF91CF911F910F9108950F931F93C3
S1130950CF93DF938230910510F482E090E0E09130
S11309602502F091260220E030E0A0E0B0E03097CC
S113097019F1408151810281138148175907C8F048
S11309808417950769F4109731F012960C93129717
S113099013961C9327C0009325021093260222C0AD
S11309A02115310519F04217530718F49A01BD01B6
S11309B0EF01DF01F801DBCF21153105F9F0281B28
S11309C0390B2430310580F48A819B8161157105CE
S11309D021F0FB019383828304C0909326028093C9
S11309E02502FE01329644C0FE01E20FF31F8193FB
S11309F0919322503109398328833AC020912302EC
S1130A0030912402232B41F42091020230910302FD
S1130A10309324022093230220910002309101029A
S1130A202115310541F42DB73EB740910402509190
S1130A300502241B350BE0912302F0912402E217F6
S1130A40F307A0F42E1B3F0B2817390778F0AC01ED
S1130A504E5F5F4F2417350748F04E0F5F1F5093CA
S1130A602402409323028193919302C0E0E0F0E0DA
S1130A70CF01DF91CF911F910F910895CF93DF9311
S1130A80009709F481C0FC01329713821282A0916D
S1130A902502B0912602109781F420813181820FC2
S1130AA0931F20912302309124022817390751F50E
S1130AB0F0932402E093230267C0ED0120E030E0CC
S1130AC0CE17DF0740F44A815B819E014115510531
S1130AD0F1F0EA01F5CFD383C28340815181840FC1
S1130AE0951FC817D90759F488819981840F951FD8
S1130AF00296918380838A819B81938382832115CB
S1130B00310529F4F0932602E09325023DC0E90162
S1130B10FB83EA8349915991C40FD51FEC17FD0754
S1130B2061F480819181840F951F0296E901998374
S1130B308883828193819B838A83E0E0F0E012962C
S1130B408D919C911397009719F0FD01DC01F7CF6B
S1130B508D919C9111979D012E5F3F4F820F931FA2
S1130B6020912302309124022817390769F4309721
S1130B7029F4109226021092250202C013821282D6
S1130B80B0932402A0932302DF91CF910895DC0156
S1130B9001C06D9341505040E0F70895F894FFCFA1
S10F0BA0000027022000414243440000F2
S9030000FC
