:10000000B9C0000048C10000D5C00000D3C0000046
:10001000D1C00000CFC00000CDC00000CBC00000A8
:10002000C9C00000C7C00000C5C00000C3C00000B8
:10003000C1C00000BFC00000BDC00000BBC00000C8
:10004000B9C00000B7C00000B5C00000B3C00000D8
:100050000CC40000AFC00000ADC00000ABC0000089
:10006000A9C00000A7C00000A5C00000A3C00000F8
:10007000A1C000009FC000009DC000009BC0000008
:1000800099C0000097C0000095C0000048C400005F
:1000900091C000008FC000008DC000008BC0000028
:1000A00089C0000087C0000085C0000083C0000038
:1000B00081C000007FC000007DC000007BC0000048
:1000C00079C0000077C0000075C0000073C0000058
:1000D00071C000006FC000006DC000006BC0000068
:1000E00069C000006F027B02870293029F02AB028D
:1000F000B702C302FA02D102DF02ED020B032203B0
:100100003903500367037E039503AC030C04C40357
:10011000DC03F403D204DE04EA04F60402050E054F
:100120001A0526055D053405420550056E05850551
:100130009C05B305CA05E105F8050F066F062706FD
:100140003F0657069706A406B106BE06CB06D8069C
:10015000E506F2062D07010710071F073F075C079A
:1001600079079607B307D007ED070A088D082B0813
:100170004C086D0811241FBECFEFD1E2DEBFCDBF0A
:1001800000E00CBF12E0A0E0B2E0E8ECF3E100E038
:100190000BBF02C007900D92A830B107D9F722E03B
:1001A000A8E0B2E001C01D92A832B207E1F703D087
:1001B0000C94E20925CFCF93DF9300D01F92CDB7E7
:1001C000DEB762E070E082E464D163E070E082E474
:1001D000C3D364E070E082E484D5A0D781E489834E
:1001E0008A83809108028B831C8278941FE40F2EEF
:1001F000F4E5FF2EF02D06E5FED160D480911702C4
:10020000803349F480911402803329F4F4D11BD156
:10021000009308022AC080911702803349F480912C
:100220001402813329F4E7D10ED1F09208021DC0E7
:1002300080911702813349F480911402803329F4AC
:100240003DD4FAD01093080210C080911702813378
:1002500061F480911402813341F4E0D2892B09F4D6
:10026000EDD22CD4E9D010930802809108028B8340
:10027000CE01019655D090931D0280931C022091CF
:10028000090230910A02FC01E20FF31F8081809382
:100290000B0240D0B1CF1F920F920FB60F921124D4
:1002A0000BB60F922F933F934F935F936F937F9370
:1002B0008F939F93AF93BF93EF93FF9388E090E06A
:1002C00015D380910B02C7D08091090290910A0248
:1002D000019690930A0280930902809109029091FD
:1002E0000A02069724F010920A0210920902FF9166
:1002F000EF91BF91AF919F918F917F916F915F919E
:100300004F913F912F910F900BBE0F900FBE0F900A
:100310001F90189580910C0290910D02C3C708950B
:100320008F929F92AF92BF92CF92DF92EF92FF9205
:100330000F931F93CF93DF9322E08630920709F447
:100340006CC0EC01FC0101900020E9F73197E81B3B
:10035000F90B5F01CF01880F991F61E070E00396F0
:10036000EFD690930D0280930C021A141B040CF02C
:1003700056C07E01A0E0B0E060E070E028E030E030
:1003800001E010E00F2EF7E09F2EF02D812CF701F9
:10039000C1917F0147E050E0D0E021503109283081
:1003A000310520F06F5F7F4F292D382DFE01042E7F
:1003B00002C0F595E7950A94E2F7E0FF12C0FB0151
:1003C000EA0FFB1FE80FF91F6801022E02C0CC0CD8
:1003D000DD1C0A94E2F7D080CD28C082215031097B
:1003E00011C0FB01EA0FFB1FE80FF91F2150310973
:1003F0006801022E02C0CC0CDD1C0A94E2F7D0800A
:10040000CD28C0824150510940F6615071091196C2
:10041000AA16BB0609F0BBCF02C080E090E0DF91D6
:10042000CF911F910F91FF90EF90DF90CF90BF90F1
:10043000AF909F908F900895803311F40FC5089569
:1004400081E30CC50895813319F480E307C508954D
:1004500081E304C508952898EBE4F1E03197F1F7C2
:1004600000C0000098E080FF02C0289A01C02898D0
:10047000EBE4F1E03197F1F700C000008695915070
:1004800091F7289A8BE491E00197F1F700C0000002
:1004900008959FEB980F9C3010F4893439F481E46F
:1004A000809319026830710524F419C06830710511
:1004B00034F082E090E09093220280932102E09158
:1004C00019028E2F90E0FC01E154F109EC30F105A6
:1004D00008F090C08827EE58FF4F8F4F29C621B1F2
:1004E00081E090E002C0880F991F6A95E2F780953D
:1004F000822381B9089524B181E090E002C0880F81
:10050000991F6A95E2F78095822384B9089527B1EF
:1005100081E090E002C0880F991F6A95E2F780950C
:10052000822387B908952AB181E090E002C0880F44
:10053000991F6A95E2F7809582238AB908952DB1B3
:1005400081E090E002C0880F991F6A95E2F78095DC
:1005500082238DB9089520B381E090E002C0880F16
:10056000991F6A95E2F78095822380BB089523B393
:1005700081E090E002C0880F991F6A95E2F78095AC
:10058000822383BB0895E1E0F1E0208181E090E0E7
:1005900002C0880F991F6A95E2F7809582238083B5
:1005A0000895E4E0F1E0208181E090E002C0880F4E
:1005B000991F6A95E2F78095822380830895E7E08A
:1005C000F1E0208181E090E002C0880F991F6A95D8
:1005D000E2F78095822380830895EAE0F1E02081AC
:1005E00081E090E002C0880F991F6A95E2F780953C
:1005F000822380830895E09119028E2F90E0FC0100
:10060000E154F109EC30F10508F006C18827E25801
:10061000FF4F8F4F8DC580B190E00090210202C046
:10062000959587950A94E2F780FF06C081E3809351
:100630001A0280911A02089580E380931A02809131
:100640001A02089583B190E00090210202C09595AE
:1006500087950A94E2F780FF06C081E380931A022F
:1006600080911A02089580E380931A0280911A0201
:10067000089586B190E00090210202C0959587957B
:100680000A94E2F780FF06C081E380931A0280910A
:100690001A02089580E380931A0280911A02089545
:1006A00089B190E00090210202C0959587950A9447
:1006B000E2F780FF06C081E380931A0280911A025C
:1006C000089580E380931A0280911A0208958CB1F4
:1006D00090E00090210202C0959587950A94E2F778
:1006E00080FF06C081E380931A0280911A02089568
:1006F00080E380931A0280911A0208958FB190E0EE
:100700000090210202C0959587950A94E2F780FF38
:1007100006C081E380931A0280911A02089580E353
:1007200080931A0280911A02089582B390E000909B
:10073000210202C0959587950A94E2F780FF06C0D2
:1007400081E380931A0280911A02089580E38093D6
:100750001A0280911A0208958091000190E00090A1
:10076000210202C0959587950A94E2F780FF06C0A2
:1007700081E380931A0280911A02089580E38093A6
:100780001A0280911A0208958091030190E000906E
:10079000210202C0959587950A94E2F780FF06C072
:1007A00081E380931A0280911A02089580E3809376
:1007B0001A0280911A0208958091060190E000903B
:1007C000210202C0959587950A94E2F780FF06C042
:1007D00081E380931A0280911A02089580E3809346
:1007E0001A0280911A0208958091090190E0009008
:1007F000210202C0959587950A94E2F780FF06C012
:1008000081E380931A0280911A02089580E3809315
:100810001A0280911A02089580E3089580910E02D1
:1008200090910F02089580E390E090930F028093DF
:100830000E021092110210921002089581E390E0CE
:1008400090930F0280930E021092800085E08093B7
:10085000810086EF92EC9093850080938400EFE610
:10086000F0E080818160808308951F920F920FB61F
:100870000F9211240BB60F922F933F934F935F93D8
:100880006F937F938F939F93AF93BF93EF93FF9358
:100890008091100290911102019690931102809321
:1008A000100286EF92EC90938500809384008091F3
:1008B0001002909111028835924029F4B4DFEFE6DE
:1008C000F0E080811082FF91EF91BF91AF919F91F5
:1008D0008F917F916F915F914F913F912F910F90E9
:1008E0000BBE0F900FBE0F901F9018959C012150CA
:1008F00031092F30310510F081E090E08295807F42
:1009000081958093B2001092B00081E08093B10095
:10091000B89BFECF1092B10081E087BB08951F9273
:100920000F920FB60F9211248F939F938091120212
:10093000909113020196909313028093120286EF16
:1009400092EC90939500809394009F918F910F90DB
:100950000FBE0F901F9018959FEB980F9C3010F4CE
:10096000893439F481E480931B026830710524F4E2
:1009700019C06830710534F081E090E09093200256
:1009800080931F02E0911B028E2F90E0FC01E15446
:10099000F109EC30F10508F090C08827E657FF4FC9
:1009A0008F4FC6C321B181E090E002C0880F991F2C
:1009B0006A95E2F78095822381B9089524B181E098
:1009C00090E002C0880F991F6A95E2F78095822314
:1009D00084B9089527B181E090E002C0880F991F83
:1009E0006A95E2F78095822387B908952AB181E05C
:1009F00090E002C0880F991F6A95E2F780958223E4
:100A00008AB908952DB181E090E002C0880F991F46
:100A10006A95E2F7809582238DB9089520B381E02D
:100A200090E002C0880F991F6A95E2F780958223B3
:100A300080BB089523B381E090E002C0880F991F26
:100A40006A95E2F78095822383BB0895E1E0F1E0A7
:100A5000208181E090E002C0880F991F6A95E2F73B
:100A60008095822380830895E4E0F1E0208181E095
:100A700090E002C0880F991F6A95E2F78095822363
:100A800080830895E7E0F1E0208181E090E002C0FA
:100A9000880F991F6A95E2F78095822380830895D5
:100AA000EAE0F1E0208181E090E002C0880F991F28
:100AB0006A95E2F78095822380830895E0911B0276
:100AC0008E2F90E0FC01E154F109EC30F10508F0C3
:100AD00006C18827EA56FF4F8F4F2AC380B190E0A6
:100AE00000901F0202C0959587950A94E2F780FF57
:100AF00006C081E380931E0280911E02089580E368
:100B000080931E0280911E02089583B190E00090B0
:100B10001F0202C0959587950A94E2F780FF06C0F0
:100B200081E380931E0280911E02089580E38093EA
:100B30001E0280911E02089586B190E000901F026F
:100B400002C0959587950A94E2F780FF06C081E37D
:100B500080931E0280911E02089580E380931E02FE
:100B600080911E02089589B190E000901F0202C09A
:100B7000959587950A94E2F780FF06C081E38093FC
:100B80001E0280911E02089580E380931E028091D0
:100B90001E0208958CB190E000901F0202C095954E
:100BA00087950A94E2F780FF06C081E380931E02D6
:100BB00080911E02089580E380931E0280911E02A0
:100BC00008958FB190E000901F0202C0959587951F
:100BD0000A94E2F780FF06C081E380931E028091B1
:100BE0001E02089580E380931E0280911E020895E4
:100BF00082B390E000901F0202C0959587950A94F9
:100C0000E2F780FF06C081E380931E0280911E02FE
:100C1000089580E380931E0280911E0208958091C2
:100C2000000190E000901F0202C0959587950A94FC
:100C3000E2F780FF06C081E380931E0280911E02CE
:100C4000089580E380931E0280911E020895809192
:100C5000030190E000901F0202C0959587950A94C9
:100C6000E2F780FF06C081E380931E0280911E029E
:100C7000089580E380931E0280911E020895809162
:100C8000060190E000901F0202C0959587950A9496
:100C9000E2F780FF06C081E380931E0280911E026E
:100CA000089580E380931E0280911E020895809132
:100CB000090190E000901F0202C0959587950A9463
:100CC000E2F780FF06C081E380931E0280911E023E
:100CD000089580E380931E0280911E02089580E3B0
:100CE00008959FEB980F9C3010F4893439F481E417
:100CF000809318026830710520F419C068307105BE
:100D000030F081E090E09093160280931502E0911C
:100D100018028E2F90E0FC01E154F109EC30F1054E
:100D200008F09BC08827EE55FF4F8F4F01C221B1BD
:100D300081E090E00090150202C0880F991F0A948C
:100D4000E2F7822B81B9089524B181E090E0009010
:100D5000150202C0880F991F0A94E2F7822B84B90A
:100D6000089527B181E090E00090150202C0880F3D
:100D7000991F0A94E2F7822B87B908952AB181E07E
:100D800090E00090150202C0880F991F0A94E2F7C4
:100D9000822B8AB908952DB181E090E00090150270
:100DA00002C0880F991F0A94E2F7822B8DB908952B
:100DB00020B381E090E00090150202C0880F991FD7
:100DC0000A94E2F7822B80BB089523B381E090E080
:100DD0000090150202C0880F991F0A94E2F7822B37
:100DE00083BB0895E1E0F1E0208181E090E0009094
:100DF000150202C0880F991F0A94E2F7822B8083A4
:100E00000895E4E0F1E0208181E090E00090150297
:100E100002C0880F991F0A94E2F7822B80830895FD
:100E2000E7E0F1E0208181E090E00090150202C04F
:100E3000880F991F0A94E2F7822B80830895EAE0D5
:100E4000F1E0208181E090E00090150202C0880F5F
:100E5000991F0A94E2F7822B80830895282FE0914E
:100E600018028E2F90E0FC01E154F109EC30F105FD
:100E700008F053C18827E255FF4F8F4F59C12033E7
:100E800071F422B181E090E00090150202C0880F59
:100E9000991F0A94E2F78095822382B9089522B1BE
:100EA00081E090E00090150202C0880F991F0A941B
:100EB000E2F7822B82B90895203371F425B181E0E5
:100EC00090E00090150202C0880F991F0A94E2F783
:100ED0008095822385B9089525B181E090E0009046
:100EE000150202C0880F991F0A94E2F7822B85B978
:100EF0000895203371F428B181E090E0009015024C
:100F000002C0880F991F0A94E2F78095822388B95E
:100F1000089528B181E090E00090150202C0880F8A
:100F2000991F0A94E2F7822B88B90895203371F44F
:100F30002BB181E090E00090150202C0880F991F4C
:100F40000A94E2F7809582238BB908952BB181E052
:100F500090E00090150202C0880F991F0A94E2F7F2
:100F6000822B8BB90895203371F42EB181E090E08B
:100F70000090150202C0880F991F0A94E2F780952D
:100F800082238EB908952EB181E090E00090150281
:100F900002C0880F991F0A94E2F7822B8EB9089538
:100FA000203371F421B381E090E00090150202C07B
:100FB000880F991F0A94E2F78095822381BB0895D8
:100FC00021B381E090E00090150202C0880F991FC4
:100FD0000A94E2F7822B81BB0895203371F424B385
:100FE00081E090E00090150202C0880F991F0A94DA
:100FF000E2F78095822384BB089524B381E090E0DA
:101000000090150202C0880F991F0A94E2F7822B04
:1010100084BB0895203381F4E2E0F1E0208181E097
:1010200090E00090150202C0880F991F0A94E2F721
:101030008095822380830895E2E0F1E0208181E0C1
:1010400090E00090150202C0880F991F0A94E2F701
:10105000822B80830895203381F4E5E0F1E0208144
:1010600081E090E00090150202C0880F991F0A9459
:10107000E2F78095822380830895E5E0F1E0208106
:1010800081E090E00090150202C0880F991F0A9439
:10109000E2F7822B80830895203381F4E8E0F1E0C9
:1010A000208181E090E00090150202C0880F991F16
:1010B0000A94E2F78095822380830895E8E0F1E0C6
:1010C000208181E090E00090150202C0880F991FF6
:1010D0000A94E2F7822B80830895203381F4EBE0B9
:1010E000F1E0208181E090E00090150202C0880FBD
:1010F000991F0A94E2F78095822380830895EBE09C
:10110000F1E0208181E090E00090150202C0880F9C
:10111000991F0A94E2F7822B808308955098589A79
:1011200083E080936900E89A1092C100209A0895A4
:10113000EE0FFF1F881F8BBF0790F691E02D1994CB
:101140000F931F93CF93DF93869F8001879F100D8E
:10115000969F100D1124C8010DD0EC01009721F0CD
:10116000A80160E070E027D1CE01DF91CF911F91FF
:101170000F9108950F931F93CF93DF9382309105C2
:1011800010F482E090E0E0912602F091270220E046
:1011900030E0A0E0B0E0309719F140815181028148
:1011A000138148175907C8F08417950769F41097F9
:1011B00031F012960C93129713961C9327C000934C
:1011C00026021093270222C02115310519F042177B
:1011D000530718F49A01BD01EF01DF01F801DBCFDD
:1011E00021153105F9F0281B390B2430310580F425
:1011F0008A819B816115710521F0FB0193838283B4
:1012000004C09093270280932602FE01329644C0C8
:10121000FE01E20FF31F819391932250310939832C
:1012200028833AC02091240230912502232B41F4D7
:101230002091020230910302309325022093240270
:1012400020910002309101022115310541F42DB7A2
:101250003EB74091040250910502241B350BE091EA
:101260002402F0912502E217F307A0F42E1B3F0B96
:101270002817390778F0AC014E5F5F4F2417350708
:1012800048F04E0F5F1F5093250240932402819334
:10129000919302C0E0E0F0E0CF01DF91CF911F9188
:1012A0000F910895CF93DF93009709F481C0FC015B
:1012B000329713821282A0912602B09127021097D2
:1012C00081F420813181820F931F2091240230917B
:1012D00025022817390751F5F0932502E0932402DF
:1012E00067C0ED0120E030E0CE17DF0740F44A810F
:1012F0005B819E0141155105F1F0EA01F5CFD383E1
:10130000C28340815181840F951FC817D90759F4B2
:1013100088819981840F951F0296918380838A81A9
:101320009B81938382832115310529F4F093270251
:10133000E09326023DC0E901FB83EA83499159917C
:10134000C40FD51FEC17FD0761F480819181840FD4
:10135000951F0296E90199838883828193819B83FB
:101360008A83E0E0F0E012968D919C9113970097AC
:1013700019F0FD01DC01F7CF8D919C9111979D0132
:101380002E5F3F4F820F931F209124023091250240
:101390002817390769F4309729F410922702109220
:1013A000260202C013821282B0932502A093240267
:1013B000DF91CF910895DC0101C06D934150504001
:0813C000E0F70895F894FFCF57
:0813C8000000280220000000D3
:00000001FF
