S01E00004C454B544F525F4D494B524F434F4E54524F4C4C45522E7372656350
S1130000B9C0000046C10000D5C00000D3C0000044
S1130010D1C00000CFC00000CDC00000CBC00000A4
S1130020C9C00000C7C00000C5C00000C3C00000B4
S1130030C1C00000BFC00000BDC00000BBC00000C4
S1130040B9C00000B7C00000B5C00000B3C00000D4
S1130050F5C30000AFC00000ADC00000ABC000009D
S1130060A9C00000A7C00000A5C00000A3C00000F4
S1130070A1C000009FC000009DC000009BC0000004
S113008099C0000097C0000095C0000093C0000014
S113009091C000008FC000008DC000008BC0000024
S11300A089C0000087C0000085C0000083C0000034
S11300B081C000007FC000007DC000007BC0000044
S11300C079C0000077C0000075C0000073C0000054
S11300D071C000006FC000006DC000006BC0000064
S11300E069C0000063026F027B02870293029F02D1
S11300F0AB02B702EE02C502D302E102FF0216030D
S11301002D0344035B0372038903A0030004B803B3
S1130110D003E8039904A504B104BD04C904D504BB
S1130120E104ED042405FB040905170535054C0518
S113013063057A059105A805BF05D6053606EE05C3
S113014006061E065E066B067806850692069F0660
S1130150AC06B906F406C806D706E6060607230762
S113016040075D077A079707B407D1075408F207D9
S11301701308340811241FBECFEFD1E2DEBFCDBF78
S113018000E00CBF12E0A0E0B2E0E6E5F3E100E03D
S11301900BBF02C007900D92A830B107D9F722E037
S11301A0A8E0B2E001C01D92A632B207E1F703D085
S11301B00C94A90925CFCF93DF9300D01F92CDB71C
S11301C0DEB762E070E082E458D163E070E082E47C
S11301D08AD364E070E082E44BD567D781E48983F5
S11301E08A83809108028B831C8278941FE40F2EEB
S11301F0F4E5FF2EF02D06E580911502803349F4D5
S113020080911202803329F4EAD111D100930802BB
S11302102AC080911502803349F4809112028133FF
S113022029F4DDD104D1F09208021DC08091150299
S1130230813349F480911202803329F406D4F0D03A
S11302401093080210C080911502813361F48091EB
S11302501202813341F4D6D2892B09F4D8D2F5D3D2
S1130260DFD010930802809108028B83CE0101969F
S11302704BD090931B0280931A0220910902309173
S11302800A02FC01E20FF31F808180930B0236D037
S1130290B3CF1F920F920FB60F9211240BB60F9289
S11302A02F933F934F935F936F937F938F939F937A
S11302B0AF93BF93EF93FF9388E090E0FBD28091DC
S11302C00B02BDD08091090290910A02019690938D
S11302D00A0280930902FF91EF91BF91AF919F9120
S11302E08F917F916F915F914F913F912F910F90DB
S11302F00BBE0F900FBE0F901F90189580910C02AB
S113030090910D0296C708958F929F92AF92BF92DB
S1130310CF92DF92EF92FF920F931F93CF93DF93CD
S113032022E08630920709F46CC0EC01FC010190D4
S11303300020E9F73197E81BF90B5F01CF01880F23
S1130340991F61E070E00396C2D690930D028093EA
S11303500C021A141B040CF056C07E01A0E0B0E09D
S113036060E070E028E030E001E010E00F2EF7E0FC
S11303709F2EF02D812CF701C1917F0147E050E0C1
S1130380D0E0215031092830310520F06F5F7F4FD4
S1130390292D382DFE01042E02C0F595E7950A9407
S11303A0E2F7E0FF12C0FB01EA0FFB1FE80FF91FA1
S11303B06801022E02C0CC0CDD1C0A94E2F7D08046
S11303C0CD28C0822150310911C0FB01EA0FFB1F67
S11303D0E80FF91F215031096801022E02C0CC0C2C
S11303E0DD1C0A94E2F7D080CD28C0824150510927
S11303F040F6615071091196AA16BB0609F0BBCFED
S113040002C080E090E0DF91CF911F910F91FF90A7
S1130410EF90DF90CF90BF90AF909F908F90089512
S1130420803311F4E2C4089581E3DFC40895813375
S113043019F480E3DAC4089581E3D7C408952898B1
S1130440EBE4F1E03197F1F700C0000098E080FFA1
S113045002C0289A01C02898EBE4F1E03197F1F743
S113046000C000008695915091F7289A8BE491E0A2
S11304700197F1F700C0000008959FEB980F9C309E
S113048010F4893439F481E48093170268307105DB
S113049024F419C06830710534F081E090E0909341
S11304A0200280931F02E09117028E2F90E0FC013E
S11304B0E154F109EC30F10508F090C08827EE58BA
S11304C0FF4F8F4FFCC521B181E090E002C0880F3F
S11304D0991F6A95E2F78095822381B9089524B122
S11304E081E090E002C0880F991F6A95E2F7809539
S11304F0822384B9089527B181E090E002C0880F77
S1130500991F6A95E2F78095822387B908952AB1E5
S113051081E090E002C0880F991F6A95E2F7809508
S113052082238AB908952DB181E090E002C0880F3A
S1130530991F6A95E2F7809582238DB9089520B3B7
S113054081E090E002C0880F991F6A95E2F78095D8
S1130550822380BB089523B381E090E002C0880F1A
S1130560991F6A95E2F78095822383BB0895E1E0A1
S1130570F1E0208181E090E002C0880F991F6A9524
S1130580E2F78095822380830895E4E0F1E02081FE
S113059081E090E002C0880F991F6A95E2F7809588
S11305A0822380830895E7E0F1E0208181E090E0F8
S11305B002C0880F991F6A95E2F780958223808391
S11305C00895EAE0F1E0208181E090E002C0880F24
S11305D0991F6A95E2F78095822380830895E091BC
S11305E017028E2F90E0FC01E154F109EC30F10583
S11305F008F006C18827E258FF4F8F4F60C580B1CD
S113060090E000901F0202C0959587950A94E2F746
S113061080FF06C081E38093180280911802089538
S113062080E38093180280911802089583B190E0CA
S113063000901F0202C0959587950A94E2F780FF07
S113064006C081E38093180280911802089580E324
S11306508093180280911802089586B190E000906A
S11306601F0202C0959587950A94E2F780FF06C0A1
S113067081E38093180280911802089580E38093A7
S1130680180280911802089589B190E000901F0229
S113069002C0959587950A94E2F780FF06C081E32E
S11306A08093180280911802089580E380931802C1
S11306B08091180208958CB190E000901F0202C04E
S11306C0959587950A94E2F780FF06C081E38093AD
S11306D0180280911802089580E380931802809193
S11306E0180208958FB190E000901F0202C0959502
S11306F087950A94E2F780FF06C081E3809318028D
S113070080911802089580E3809318028091180262
S1130710089582B390E000901F0202C095958795DA
S11307200A94E2F780FF06C081E380931802809167
S11307301802089580E380931802809118020895A6
S11307408091000190E000901F0202C0959587956A
S11307500A94E2F780FF06C081E380931802809137
S11307601802089580E38093180280911802089576
S11307708091030190E000901F0202C09595879537
S11307800A94E2F780FF06C081E380931802809107
S11307901802089580E38093180280911802089546
S11307A08091060190E000901F0202C09595879504
S11307B00A94E2F780FF06C081E3809318028091D7
S11307C01802089580E38093180280911802089516
S11307D08091090190E000901F0202C095958795D1
S11307E00A94E2F780FF06C081E3809318028091A7
S11307F01802089580E380931802809118020895E6
S113080080E3089580910E0290910F02089581E390
S113081090E090930F0280930E021092800085E086
S11308208093810086EF92EC9093850080938400FE
S1130830EFE6F0E080818160808308951F920F923B
S11308400FB60F9211240BB60F922F938F939F9391
S1130850EF93FF938091100290911102019690936F
S113086011028093100286EF92EC9093850080939E
S1130870840080911002909111028835924071F4A5
S113088080E390E090930F0280930E021092110285
S113089010921002EFE6F0E080811082FF91EF9158
S11308A09F918F912F910F900BBE0F900FBE0F90C1
S11308B01F9018959C01215031092F30310510F0FB
S11308C081E090E08295807F81958093B2001092C0
S11308D0B00081E08093B100B89BFECF1092B100CC
S11308E081E087BB08959FEB980F9C3010F4893406
S11308F039F481E4809319026830710524F419C035
S11309006830710534F081E090E090931E0280938A
S11309101D02E09119028E2F90E0FC01E154F109CF
S1130920EC30F10508F090C08827E657FF4F8F4F51
S1130930C6C321B181E090E002C0880F991F6A9577
S1130940E2F78095822381B9089524B181E090E093
S113095002C0880F991F6A95E2F78095822384B9B3
S1130960089527B181E090E002C0880F991F6A952D
S1130970E2F78095822387B908952AB181E090E057
S113098002C0880F991F6A95E2F7809582238AB97D
S113099008952DB181E090E002C0880F991F6A95F7
S11309A0E2F7809582238DB9089520B381E090E029
S11309B002C0880F991F6A95E2F78095822380BB55
S11309C0089523B381E090E002C0880F991F6A95CF
S11309D0E2F78095822383BB0895E1E0F1E0208172
S11309E081E090E002C0880F991F6A95E2F7809534
S11309F0822380830895E4E0F1E0208181E090E0A7
S1130A0002C0880F991F6A95E2F78095822380833C
S1130A100895E7E0F1E0208181E090E002C0880FD2
S1130A20991F6A95E2F78095822380830895EAE00E
S1130A30F1E0208181E090E002C0880F991F6A955F
S1130A40E2F78095822380830895E09119028E2F26
S1130A5090E0FC01E154F109EC30F10508F006C125
S1130A608827EA56FF4F8F4F2AC380B190E0009049
S1130A701D0202C0959587950A94E2F780FF06C08F
S1130A8081E380931C0280911C02089580E380938B
S1130A901C0280911C02089583B190E000901D0215
S1130AA002C0959587950A94E2F780FF06C081E31A
S1130AB080931C0280911C02089580E380931C02A1
S1130AC080911C02089586B190E000901D0202C03E
S1130AD0959587950A94E2F780FF06C081E3809399
S1130AE01C0280911C02089580E380931C02809173
S1130AF01C02089589B190E000901D0202C09595F2
S1130B0087950A94E2F780FF06C081E380931C0274
S1130B1080911C02089580E380931C0280911C0242
S1130B2008958CB190E000901D0202C095958795C0
S1130B300A94E2F780FF06C081E380931C0280914F
S1130B401C02089580E380931C0280911C02089586
S1130B508FB190E000901D0202C0959587950A948C
S1130B60E2F780FF06C081E380931C0280911C029F
S1130B70089580E380931C0280911C02089582B33F
S1130B8090E000901D0202C0959587950A94E2F7C3
S1130B9080FF06C081E380931C0280911C020895AB
S1130BA080E380931C0280911C02089580910001CF
S1130BB090E000901D0202C0959587950A94E2F793
S1130BC080FF06C081E380931C0280911C0208957B
S1130BD080E380931C0280911C020895809103019C
S1130BE090E000901D0202C0959587950A94E2F763
S1130BF080FF06C081E380931C0280911C0208954B
S1130C0080E380931C0280911C0208958091060168
S1130C1090E000901D0202C0959587950A94E2F732
S1130C2080FF06C081E380931C0280911C0208951A
S1130C3080E380931C0280911C0208958091090135
S1130C4090E000901D0202C0959587950A94E2F702
S1130C5080FF06C081E380931C0280911C020895EA
S1130C6080E380931C0280911C02089580E3089520
S1130C709FEB980F9C3010F4893439F481E480930D
S1130C8016026830710520F419C06830710530F01F
S1130C9081E090E09093140280931302E091160295
S1130CA08E2F90E0FC01E154F109EC30F10508F0DD
S1130CB09BC08827EE55FF4F8F4F01C221B181E0C1
S1130CC090E00090130202C0880F991F0A94E2F783
S1130CD0822B81B9089524B181E090E00090130241
S1130CE002C0880F991F0A94E2F7822B84B90895F1
S1130CF027B181E090E00090130202C0880F991F91
S1130D000A94E2F7822B87B908952AB181E090E032
S1130D100090130202C0880F991F0A94E2F7822BF5
S1130D208AB908952DB181E090E00090130202C0C9
S1130D30880F991F0A94E2F7822B8DB9089520B386
S1130D4081E090E00090130202C0880F991F0A947A
S1130D50E2F7822B80BB089523B381E090E00090FA
S1130D60130202C0880F991F0A94E2F7822B83BBF7
S1130D700895E1E0F1E0208181E090E00090130229
S1130D8002C0880F991F0A94E2F7822B808308958A
S1130D90E4E0F1E0208181E090E00090130202C0E1
S1130DA0880F991F0A94E2F7822B80830895E7E065
S1130DB0F1E0208181E090E00090130202C0880FEE
S1130DC0991F0A94E2F7822B80830895EAE0F1E008
S1130DD0208181E090E00090130202C0880F991FE7
S1130DE00A94E2F7822B80830895282FE09116025B
S1130DF08E2F90E0FC01E154F109EC30F10508F08C
S1130E0053C18827E255FF4F8F4F59C1203371F4E6
S1130E1022B181E090E00090130202C0880F991F74
S1130E200A94E2F78095822382B9089522B181E081
S1130E3090E00090130202C0880F991F0A94E2F711
S1130E40822B82B90895203371F425B181E090E0BA
S1130E500090130202C0880F991F0A94E2F780954C
S1130E60822385B9089525B181E090E000901302B2
S1130E7002C0880F991F0A94E2F7822B85B908955E
S1130E80203371F428B181E090E00090130202C095
S1130E90880F991F0A94E2F78095822388B90895F0
S1130EA028B181E090E00090130202C0880F991FDE
S1130EB00A94E2F7822B88B90895203371F42BB198
S1130EC081E090E00090130202C0880F991F0A94F9
S1130ED0E2F7809582238BB908952BB181E090E0ED
S1130EE00090130202C0880F991F0A94E2F7822B24
S1130EF08BB90895203371F42EB181E090E0009015
S1130F00130202C0880F991F0A94E2F78095822386
S1130F108EB908952EB181E090E00090130202C0D2
S1130F20880F991F0A94E2F7822B8EB90895203313
S1130F3071F421B381E090E00090130202C0880FA5
S1130F40991F0A94E2F78095822381BB089521B307
S1130F5081E090E00090130202C0880F991F0A9468
S1130F60E2F7822B81BB0895203371F424B381E02E
S1130F7090E00090130202C0880F991F0A94E2F7D0
S1130F808095822384BB089524B381E090E000908F
S1130F90130202C0880F991F0A94E2F7822B84BBC4
S1130FA00895203381F4E2E0F1E0208181E090E0D3
S1130FB00090130202C0880F991F0A94E2F78095EB
S1130FC0822380830895E2E0F1E0208181E090E0D3
S1130FD00090130202C0880F991F0A94E2F7822B33
S1130FE080830895203381F4E5E0F1E0208181E0FD
S1130FF090E00090130202C0880F991F0A94E2F750
S11310008095822380830895E5E0F1E0208181E0EA
S113101090E00090130202C0880F991F0A94E2F72F
S1131020822B80830895203381F4E8E0F1E020816D
S113103081E090E00090130202C0880F991F0A9487
S1131040E2F78095822380830895E8E0F1E020812F
S113105081E090E00090130202C0880F991F0A9467
S1131060E2F7822B80830895203381F4EBE0F1E0F2
S1131070208181E090E00090130202C0880F991F44
S11310800A94E2F78095822380830895EBE0F1E0EF
S1131090208181E090E00090130202C0880F991F24
S11310A00A94E2F7822B808308955098589A83E03B
S11310B080936900E89A1092C100209A0895EE0F77
S11310C0FF1F881F8BBF0790F691E02D19940F9393
S11310D01F93CF93DF93869F8001879F100D969F68
S11310E0100D1124C8010DD0EC01009721F0A801C6
S11310F060E070E027D1CE01DF91CF911F910F9175
S113110008950F931F93CF93DF938230910510F4CA
S113111082E090E0E0912402F091250220E030E0AA
S1131120A0E0B0E0309719F1408151810281138130
S113113048175907C8F08417950769F4109731F0D8
S113114012960C93129713961C9327C000932402B3
S11311501093250222C02115310519F042175307B7
S113116018F49A01BD01EF01DF01F801DBCF21156D
S11311703105F9F0281B390B2430310580F48A81BC
S11311809B816115710521F0FB019383828304C067
S11311909093250280932402FE01329644C0FE01FE
S11311A0E20FF31F819391932250310939832883ED
S11311B03AC02091220230912302232B41F4209142
S11311C002023091030230932302209322022091E1
S11311D00002309101022115310541F42DB73EB7CB
S11311E04091040250910502241B350BE091220228
S11311F0F0912302E217F307A0F42E1B3F0B2817EC
S1131200390778F0AC014E5F5F4F2417350748F07B
S11312104E0F5F1F509323024093220281939193B8
S113122002C0E0E0F0E0CF01DF91CF911F910F9178
S11312300895CF93DF93009709F481C0FC0132979E
S113124013821282A0912402B0912502109781F496
S113125020813181820F931F209122023091230239
S11312602817390751F5F0932302E093220267C04F
S1131270ED0120E030E0CE17DF0740F44A815B81C6
S11312809E0141155105F1F0EA01F5CFD383C283E4
S113129040815181840F951FC817D90759F488815B
S11312A09981840F951F0296918380838A819B8103
S11312B0938382832115310529F4F0932502E09369
S11312C024023DC0E901FB83EA8349915991C40F8B
S11312D0D51FEC17FD0761F480819181840F951F60
S11312E00296E90199838883828193819B838A830F
S11312F0E0E0F0E012968D919C911397009719F01D
S1131300FD01DC01F7CF8D919C9111979D012E5F1A
S11313103F4F820F931F20912202309123022817FE
S1131320390769F4309729F41092250210922402A7
S113133002C013821282B0932302A0932202DF918F
S1131340CF910895DC0101C06D9341505040E0F706
S10913500895F894FFCF9C
S10B1356000026022000000043
S9030000FC
