S01E00004C454B544F525F4D494B524F434F4E54524F4C4C45522E7372656350
S1130000B9C000000C94BF08D5C00000D3C00000E4
S1130010D1C00000CFC00000CDC00000CBC00000A4
S1130020C9C00000C7C00000C5C00000C3C00000B4
S1130030C1C00000BFC00000BDC00000BBC00000C4
S1130040B9C00000B7C00000B5C00000B3C00000D4
S11300504EC40000AFC00000ADC00000ABC0000043
S1130060A9C00000A7C00000A5C00000A3C00000F4
S1130070A1C000009FC000009DC000009BC0000004
S113008099C0000097C0000095C0000093C0000014
S113009091C000008FC000008DC000008BC0000024
S11300A089C0000087C0000085C0000083C0000034
S11300B081C000007FC000007DC000007BC0000044
S11300C079C0000077C0000075C0000073C0000054
S11300D071C000006FC000006DC000006BC0000064
S11300E069C00000F30201030F031D032B0339034E
S11300F0470355039403650375038503A503B203FE
S1130100BF03CC03D903E603F303000438040E044D
S11301101C042A04E204F004FE040C051A05280554
S11301203605440583055405640574059405AB053B
S1130130C205D905F00507061E06350695064D06C7
S113014065067D06C106CE06DB06E806F50602074F
S11301500F071C0757072B073A0749076907860744
S1130160A307C007DD07FA0717083408B7085508BE
S11301707608970811241FBECFEFD1E2DEBFCDBFB2
S113018000E00CBF12E0A0E0B2E0EEE3F4E100E036
S11301900BBF02C007900D92AA30B107D9F722E035
S11301A0AAE0B2E001C01D92A632B207E1F7FAD08C
S11301B00C941D0A25CF80911C028033F1F48091A8
S11301C01B028033D1F480910A0290910B02892B97
S11301D049F48091060290910702019719F0109258
S11301E01F0285C081E080931F0281E48093200276
S11301F010920B0210920A027AC080911C02803382
S113020009F580911B028133E9F480910A029091EF
S11302100B02019749F4809106029091070201971D
S113022019F010921F0263C040D381E080931F0233
S113023086E48093200281E090E090930B02809307
S11302400A0255C080911C02813371F580911B0212
S1130250803351F580910A0290910B020A97B1F410
S11302608091060290910702019781F010921F027B
S113027017D3892BE1F581E080931F0281E48093F9
S1130280200210920B0210920A0231C019D381E0AD
S113029080931F0282E4809320028AE090E090938E
S11302A00B0280930A0223C080911C028133F9F46B
S11302B080911B028133D9F480910A0290910B0240
S11302C00B9749F48091060290910702019719F067
S11302D010921F020CC081E080931F0282E480937D
S11302E020028BE090E090930B0280930A028091AD
S11302F0060290910702019721F4109207021092CE
S1130300060208951092900081E0809391008FE797
S113031091EC9093950080939400C09BFECF109233
S1130320910081E088BB089510921E0210921D0274
S1130330279AE8DF2798089510921E0210921D0252
S113034080911D0290911E02892BD1F30895109281
S1130350010182E484BD91E095BD87BD08951092AA
S1130360A00081E08093A10080EC99EF9093A50018
S11303708093A400C89BFECF1092A10081E089BBAA
S11303800895CF93DF93D82FC8E0D6DFBBDFBADF61
S1130390E6DFDD230CF4C8DFDD0FC150B1F7DF91D8
S11303A0CF910895CF93DF9300D0CDB7DEB762E04D
S11303B070E082E4F0D063E070E082E4D9D264E0DB
S11303C070E082E4B4D4D4D6C2DF78940F2EF1E482
S11303D0BF2EF02DD4D0BAD0EEDE80911F02813032
S11303E0C9F7B982809120028A831B82CE010196CB
S11303F018D07C018EEEC5DF670100E010E006C076
S1130400F60181916F01BDDF0F5F1F4FF70101906E
S11304100020E9F73197EE19FF090E171F0780F343
S1130420D9CF8F929F92AF92BF92CF92DF92EF92E9
S1130430FF920F931F93CF93DF9322E088309207AC
S113044009F46CC0EC01FC0101900020E9F731973C
S1130450E81BF90B5F01CF01880F991F61E070E081
S11304600396A9D690930D0280930C021A141B04D0
S11304700CF056C07E01A0E0B0E060E070E028E03F
S113048030E001E010E00F2EF7E09F2EF02D812CDC
S1130490F701C1917F0147E050E0D0E021503109DC
S11304A02830310520F06F5F7F4F292D382DFE0154
S11304B0042E02C0F595E7950A94E2F7E0FF12C016
S11304C0FB01EA0FFB1FE80FF91F6801022E02C0AF
S11304D0CC0CDD1C0A94E2F7D080CD28C0822150D8
S11304E0310911C0FB01EA0FFB1FE80FF91F21506E
S11304F031096801022E02C0CC0CDD1C0A94E2F71B
S1130500D080CD28C0824150510940F66150710914
S11305101196AA16BB0609F0BBCF02C080E090E09A
S1130520DF91CF911F910F91FF90EF90DF90CF90CB
S1130530BF90AF909F908F90089580911C0280335C
S113054011F4B6C4089581E3B3C40895DDD28133B0
S113055021F480931C02F1CF089580E380931C0260
S1130560ECCF089580911B02813331F499D1892B0A
S113057019F480E39DC4089581E39AC40895D5D005
S1130580813321F480931B02EDCF089580E380939F
S11305901B02E8CF08959FEB980F9C3020F081E474
S11305A08093100202C0809310026830710538F005
S11305B081E090E090930F0280930E0204C0709348
S11305C00F0260930E02E09110028E2F90E0FC0166
S11305D0E154F109EC30F10508F0A6C08827EE5883
S11305E0FF4F8F4FE0C521B181E090E000900E02F3
S11305F002C0880F991F0A94E2F78095822381B97B
S1130600089524B181E090E000900E0202C0880FAA
S1130610991F0A94E2F78095822384B9089527B13B
S113062081E090E000900E0202C0880F991F0A94A6
S1130630E2F78095822387B908952AB181E090E09A
S113064000900E0202C0880F991F0A94E2F7809569
S113065082238AB908952DB181E090E000900E02C2
S113066002C0880F991F0A94E2F7809582238DB9FE
S1130670089520B381E090E000900E0202C0880F3C
S1130680991F0A94E2F78095822380BB089523B3CF
S113069081E090E000900E0202C0880F991F0A9436
S11306A0E2F78095822383BB0895E1E0F1E02081A5
S11306B081E090E000900E0202C0880F991F0A9416
S11306C0E2F78095822380830895E4E0F1E02081BD
S11306D081E090E000900E0202C0880F991F0A94F6
S11306E0E2F78095822380830895E7E0F1E020819A
S11306F081E090E000900E0202C0880F991F0A94D6
S1130700E2F78095822380830895EAE0F1E0208176
S113071081E090E000900E0202C0880F991F0A94B5
S1130720E2F78095822380830895E09110028E2F52
S113073090E0FC01E154F109EC30F10508F098C0B7
S11307408827E258FF4F8F4F2EC580B190E000906C
S11307500E0202C0959587950A94E2F780FD8AC03F
S113076080E3089583B190E000900E0202C0959555
S113077087950A94E2F780FD7FC080E3089586B1EF
S113078090E000900E0202C0959587950A94E2F7D6
S113079080FD74C080E3089589B190E000900E025A
S11307A002C0959587950A94E2F780FD69C080E3BD
S11307B008958CB190E000900E0202C09595879543
S11307C00A94E2F780FD5EC080E308958FB190E063
S11307D000900E0202C0959587950A94E2F780FD79
S11307E053C080E3089582B390E000900E0202C0EB
S11307F0959587950A94E2F780FD48C080E30895B3
S11308008091000190E000900E0202C095958795BA
S11308100A94E2F780FD3CC080E3089580910301CF
S113082090E000900E0202C0959587950A94E2F735
S113083080FD30C080E308958091060190E000902F
S11308400E0202C0959587950A94E2F780FD24C0B4
S113085080E308958091090190E000900E0202C0A7
S1130860959587950A94E2F780FD18C080E3089572
S113087080E3089581E3089581E3089581E3089571
S113088081E3089581E3089581E3089581E3089560
S113089081E3089581E3089581E3089581E3089550
S11308A08091110290911202089580E390E0909358
S11308B012028093110210921402109213020895EE
S11308C081E390E0909312028093110210928000D1
S11308D085E08093810086EF92EC9093850080936D
S11308E08400EFE6F0E080818160808308951F92A8
S11308F00F920FB60F9211240BB60F922F933F93C2
S11309004F935F936F937F938F939F93AF93BF9313
S1130910EF93FF93809113029091140201969093A8
S113092014028093130286EF92EC909385008093D7
S1130930840080911302909114028835924029F426
S1130940B4DFEFE6F0E080811082FF91EF91BF9178
S1130950AF919F918F917F916F915F914F913F9153
S11309602F910F900BBE0F900FBE0F901F901895F4
S11309709FEB980F9C3010F4893421F481E4809328
S1130980170202C080931702683071053CF085E0BD
S113099090E0909316028093150204C0709316029F
S11309A060931502E09117028E2F90E0FC01E15450
S11309B0F109EC30F10508F0A6C08827E657FF4F8F
S11309C08F4FF1C321B181E090E00090150202C085
S11309D0880F991F0A94E2F78095822381B90895BC
S11309E024B181E090E00090150202C0880F991FA5
S11309F00A94E2F78095822384B9089527B181E0AF
S1130A0090E00090150202C0880F991F0A94E2F743
S1130A108095822387B908952AB181E090E00090FF
S1130A20150202C0880F991F0A94E2F78095822369
S1130A308AB908952DB181E090E00090150202C0BA
S1130A40880F991F0A94E2F7809582238DB908953F
S1130A5020B381E090E00090150202C0880F991F36
S1130A600A94E2F78095822380BB089523B381E042
S1130A7090E00090150202C0880F991F0A94E2F7D3
S1130A808095822383BB0895E1E0F1E0208181E039
S1130A9090E00090150202C0880F991F0A94E2F7B3
S1130AA08095822380830895E4E0F1E0208181E051
S1130AB090E00090150202C0880F991F0A94E2F793
S1130AC08095822380830895E7E0F1E0208181E02E
S1130AD090E00090150202C0880F991F0A94E2F773
S1130AE08095822380830895EAE0F1E0208181E00B
S1130AF090E00090150202C0880F991F0A94E2F753
S1130B008095822380830895E09117028E2F90E0D0
S1130B10FC01E154F109EC30F10508F006C1882725
S1130B20EA56FF4F8F4F3FC380B190E0009015020B
S1130B3002C0959587950A94E2F780FF06C081E389
S1130B408093210280912102089580E38093210201
S1130B5080912102089583B190E00090150202C0B3
S1130B60959587950A94E2F780FF06C081E3809308
S1130B70210280912102089580E3809321028091D3
S1130B802102089586B190E00090150202C0959567
S1130B9087950A94E2F780FF06C081E380932102DF
S1130BA080912102089580E38093210280912102A3
S1130BB0089589B190E00090150202C0959587953B
S1130BC00A94E2F780FF06C081E3809321028091BA
S1130BD02102089580E380932102809121020895E7
S1130BE08CB190E00090150202C0959587950A9407
S1130BF0E2F780FF06C081E3809321028091210205
S1130C00089580E3809321028091210208958FB199
S1130C1090E00090150202C0959587950A94E2F73A
S1130C2080FF06C081E38093210280912102089510
S1130C3080E38093210280912102089582B390E0A1
S1130C400090150202C0959587950A94E2F780FFFB
S1130C5006C081E38093210280912102089580E3FC
S1130C60809321028091210208958091000190E0F7
S1130C700090150202C0959587950A94E2F780FFCB
S1130C8006C081E38093210280912102089580E3CC
S1130C90809321028091210208958091030190E0C4
S1130CA00090150202C0959587950A94E2F780FF9B
S1130CB006C081E38093210280912102089580E39C
S1130CC0809321028091210208958091060190E091
S1130CD00090150202C0959587950A94E2F780FF6B
S1130CE006C081E38093210280912102089580E36C
S1130CF0809321028091210208958091090190E05E
S1130D000090150202C0959587950A94E2F780FF3A
S1130D1006C081E38093210280912102089580E33B
S1130D208093210280912102089580E308959FEB2E
S1130D30980F9C3010F4893421F481E480931A02D2
S1130D4002C080931A026830710538F083E090E0A5
S1130D50909319028093180204C07093190260934F
S1130D601802E0911A028E2F90E0FC01E154F1097F
S1130D70EC30F10508F09BC08827EE55FF4F8F4FEC
S1130D8012C221B181E090E00090180202C0880FE5
S1130D90991F0A94E2F7822B81B9089524B181E066
S1130DA090E00090180202C0880F991F0A94E2F79D
S1130DB0822B84B9089527B181E090E00090180255
S1130DC002C0880F991F0A94E2F7822B87B908950D
S1130DD02AB181E090E00090180202C0880F991FA8
S1130DE00A94E2F7822B8AB908952DB181E090E04C
S1130DF00090180202C0880F991F0A94E2F7822B10
S1130E008DB9089520B381E090E00090180202C0EB
S1130E10880F991F0A94E2F7822B80BB089523B3AD
S1130E2081E090E00090180202C0880F991F0A9494
S1130E30E2F7822B83BB0895E1E0F1E0208181E0B9
S1130E4090E00090180202C0880F991F0A94E2F7FC
S1130E50822B80830895E4E0F1E0208181E090E03A
S1130E600090180202C0880F991F0A94E2F7822B9F
S1130E7080830895E7E0F1E0208181E090E0009034
S1130E80180202C0880F991F0A94E2F7822B80830C
S1130E900895EAE0F1E0208181E090E000901802FA
S1130EA002C0880F991F0A94E2F7822B8083089569
S1130EB0282FE0911A028E2F90E0FC01E154F109F1
S1130EC0EC30F10508F053C18827E255FF4F8F4FEE
S1130ED06AC1203371F422B181E090E000901802DD
S1130EE002C0880F991F0A94E2F78095822382B981
S1130EF0089522B181E090E00090180202C0880FAA
S1130F00991F0A94E2F7822B82B90895203371F471
S1130F1025B181E090E00090180202C0880F991F6B
S1130F200A94E2F78095822385B9089525B181E07A
S1130F3090E00090180202C0880F991F0A94E2F70B
S1130F40822B85B90895203371F428B181E090E0B3
S1130F500090180202C0880F991F0A94E2F7809546
S1130F60822388B9089528B181E090E000901802A6
S1130F7002C0880F991F0A94E2F7822B88B908955A
S1130F80203371F42BB181E090E00090180202C08C
S1130F90880F991F0A94E2F7809582238BB90895EC
S1130FA02BB181E090E00090180202C0880F991FD5
S1130FB00A94E2F7822B8BB90895203371F42EB191
S1130FC081E090E00090180202C0880F991F0A94F3
S1130FD0E2F7809582238EB908952EB181E090E0E6
S1130FE00090180202C0880F991F0A94E2F7822B1E
S1130FF08EB90895203371F421B381E090E000901C
S1131000180202C0880F991F0A94E2F78095822380
S113101081BB089521B381E090E00090180202C0E2
S1131020880F991F0A94E2F7822B81BB089520331D
S113103071F424B381E090E00090180202C0880F9C
S1131040991F0A94E2F78095822384BB089524B300
S113105081E090E00090180202C0880F991F0A9462
S1131060E2F7822B84BB0895203381F4E2E0F1E0BF
S1131070208181E090E00090180202C0880F991F3F
S11310800A94E2F78095822380830895E2E0F1E0F8
S1131090208181E090E00090180202C0880F991F1F
S11310A00A94E2F7822B80830895203381F4E5E0EB
S11310B0F1E0208181E090E00090180202C0880FE6
S11310C0991F0A94E2F78095822380830895E5E0CE
S11310D0F1E0208181E090E00090180202C0880FC6
S11310E0991F0A94E2F7822B80830895203381F4B8
S11310F0E8E0F1E0208181E090E00090180202C075
S1131100880F991F0A94E2F78095822380830895BB
S1131110E8E0F1E0208181E090E00090180202C054
S1131120880F991F0A94E2F7822B80830895203355
S113113081F4EBE0F1E0208181E090E0009018027E
S113114002C0880F991F0A94E2F780958223808356
S11311500895EBE0F1E0208181E090E00090180236
S113116002C0880F991F0A94E2F7822B80830895A6
S11311705098589A83E080936900E89A08951F92E2
S11311800F920FB60F9211248F939F9381E090E0FA
S113119090931E0280931D029F918F910F900FBE1A
S11311A00F901F901895EE0FFF1F881F8BBF07909D
S11311B0F691E02D19940F931F93CF93DF93869F9D
S11311C08001879F100D969F100D1124C8010DD02A
S11311D0EC01009721F0A80160E070E027D1CE0176
S11311E0DF91CF911F910F9108950F931F93CF9388
S11311F0DF938230910510F482E090E0E0912402C4
S1131200F091250220E030E0A0E0B0E0309719F141
S1131210408151810281138148175907C8F084170E
S1131220950769F4109731F012960C931297139660
S11312301C9327C0009324021093250222C0211579
S1131240310519F04217530718F49A01BD01EF0153
S1131250DF01F801DBCF21153105F9F0281B390B2B
S11312602430310580F48A819B816115710521F058
S1131270FB019383828304C090932502809324020C
S1131280FE01329644C0FE01E20FF31F8193919355
S113129022503109398328833AC0209122023091A7
S11312A02302232B41F42091020230910302309354
S11312B02302209322022091000230910102211581
S11312C0310541F42DB73EB7409104025091050217
S11312D0241B350BE0912202F0912302E217F3075D
S11312E0A0F42E1B3F0B2817390778F0AC014E5F92
S11312F05F4F2417350748F04E0F5F1F50932302AA
S1131300409322028193919302C0E0E0F0E0CF0188
S1131310DF91CF911F910F910895CF93DF930097A1
S113132009F481C0FC01329713821282A091240235
S1131330B0912502109781F420813181820F931F8F
S113134020912202309123022817390751F5F09396
S11313502302E093220267C0ED0120E030E0CE17C3
S1131360DF0740F44A815B819E0141155105F1F08C
S1131370EA01F5CFD383C28340815181840F951F45
S1131380C817D90759F488819981840F951F02964B
S1131390918380838A819B81938382832115310584
S11313A029F4F0932502E09324023DC0E901FB8374
S11313B0EA8349915991C40FD51FEC17FD0761F4D5
S11313C080819181840F951F0296E9019983888316
S11313D0828193819B838A83E0E0F0E012968D9171
S11313E09C911397009719F0FD01DC01F7CF8D91C3
S11313F09C9111979D012E5F3F4F820F931F209167
S11314002202309123022817390769F4309729F40E
S1131410109225021092240202C013821282B09309
S11314202302A0932202DF91CF910895DC0101C031
S11114306D9341505040E0F70895F894FFCFBB
S10D143E0000260220000100000057
S9030000FC
