:10000000B9C000000C94F108D5C00000D3C00000B6
:10001000D1C00000CFC00000CDC00000CBC00000A8
:10002000C9C00000C7C00000C5C00000C3C00000B8
:10003000C1C00000BFC00000BDC00000BBC00000C8
:10004000B9C00000B7C00000B5C00000B3C00000D8
:1000500080C40000AFC00000ADC00000ABC0000015
:10006000A9C00000A7C00000A5C00000A3C00000F8
:10007000A1C000009FC000009DC000009BC0000008
:1000800099C0000097C0000095C0000093C0000018
:1000900091C000008FC000008DC000008BC0000028
:1000A00089C0000087C0000085C0000083C0000038
:1000B00081C000007FC000007DC000007BC0000048
:1000C00079C0000077C0000075C0000073C0000058
:1000D00071C000006FC000006DC000006BC0000068
:1000E00069C000001E032C033A034803560364034F
:1000F00072038003BF039003A003B003D003DD03AA
:10010000EA03F703040411041E042B0463043904F6
:10011000470455041405220530053E054C055A05D3
:1001200068057605B50586059605A605C605DD05AF
:10013000F4050B062206390650066706C7067F0639
:100140009706AF06F30600070D071A0727073407BF
:1001500041074E0789075D076C077B079B07B807B8
:10016000D507F2070F082C0849086608E908870830
:10017000A808C90811241FBECFEFD1E2DEBFCDBF52
:1001800000E00CBF12E0A0E0B2E0E2EAF4E100E03F
:100190000BBF02C007900D92AA30B107D9F722E039
:1001A000AAE0B2E001C01D92A832B207E1F71CD16B
:1001B0000C944F0A25CF80911E02803311F5809157
:1001C0001B028033F1F480910A0290910B02892B7B
:1001D00049F48091060290910702019719F010925C
:1001E0002102A7C081E08093210281E48093220252
:1001F00010920B0210920A0210921D0210921C0221
:1002000098C080911E02803329F580911B028133B2
:1002100009F580910A0290910B02019749F48091AF
:10022000060290910702019719F01092210281C0F5
:100230006ED381E08093210286E48093220281E0E4
:1002400090E090930B0280930A0210921D0210928C
:100250001C026FC080911E02813309F043C080915F
:100260001B02803309F03EC080910A0290910B027C
:100270000A9731F58091060290910702019701F1EA
:100280001092210238D3892B09F053C080911C02AF
:1002900090911D02019709F44CC081E080932102E6
:1002A00081E4809322028AE090E090930B02809395
:1002B0000A0281E090E090931D0280931C0239C0F5
:1002C00031D381E08093210282E4809322028AE08C
:1002D00090E090930B0280930A0210921D021092FC
:1002E0001C0227C080911E02813319F580911B02E8
:1002F0008133F9F480910A0290910B020B9749F433
:100300008091060290910702019719F01092210244
:1003100010C081E08093210282E4809322028BE06E
:1003200090E090930B0280930A0210921D021092AB
:100330001C028091060290910702019721F410920D
:1003400007021092060208951092900081E08093B7
:1003500091008FE791EC9093950080939400C09B5F
:10036000FECF1092910081E088BB08951092200288
:1003700010921F02279AE8DF279808951092200212
:1003800010921F0280911F0290912002892BD1F3BD
:10039000089580E884B982E484BD91E095BD87BD6D
:1003A00008951092A00081E08093A10080EC99EF65
:1003B0009093A5008093A400C89BFECF1092A1004B
:1003C00081E089BB0895CF93DF93D82FC8E0D6DFB3
:1003D000BBDFBADFE6DFDD230CF4C8DFDD0FC15081
:1003E000B1F7DF91CF910895CF93DF9300D0CDB7D0
:1003F000DEB762E070E082E4F9D063E070E082E4AE
:10040000E9D264E070E082E4C4D4E4D6C2DF789438
:100410000F2EF1E49F2EF02DDDD0C3D0CCDE8091E5
:1004200021028130C9F79982809122028A831B823E
:10043000CE01019621D07C016894AA24A1F8B12CA8
:100440008EEEC1DF670100E010E006C0F601819189
:100450006F01B9DF0F5F1F4FF70101900020E9F72F
:100460003197EE19FF090E171F0780F36DDFF1E0DA
:10047000AF1AB10829F7D0CF8F929F92AF92BF9257
:10048000CF92DF92EF92FF920F931F93CF93DF9360
:1004900022E08830920709F46CC0EC01FC01019065
:1004A0000020E9F73197E81BF90B5F01CF01880FB6
:1004B000991F61E070E00396B0D690930D0280938F
:1004C0000C021A141B040CF056C07E01A0E0B0E030
:1004D00060E070E028E030E001E010E00F2EF7E08F
:1004E0009F2EF02D812CF701C1917F0147E050E054
:1004F000D0E0215031092830310520F06F5F7F4F67
:10050000292D382DFE01042E02C0F595E7950A9499
:10051000E2F7E0FF12C0FB01EA0FFB1FE80FF91F33
:100520006801022E02C0CC0CDD1C0A94E2F7D080D8
:10053000CD28C0822150310911C0FB01EA0FFB1FF9
:10054000E80FF91F215031096801022E02C0CC0CBE
:10055000DD1C0A94E2F7D080CD28C08241505109B9
:1005600040F6615071091196AA16BB0609F0BBCF7F
:1005700002C080E090E0DF91CF911F910F91FF903A
:10058000EF90DF90CF90BF90AF909F908F900895A5
:1005900080911E02803311F4BDC4089581E3BAC472
:1005A0000895E4D2813321F480931E02F1CF08959F
:1005B00080E380931E02ECCF089580911B0281336B
:1005C00031F499D1892B19F480E3A4C4089581E30F
:1005D000A1C40895D5D0813321F480931B02EDCFBF
:1005E000089580E380931B02E8CF08959FEB980F56
:1005F0009C3020F081E48093100202C080931002AE
:100600006830710538F081E090E090930F0280939C
:100610000E0204C070930F0260930E02E09110026C
:100620008E2F90E0FC01E154F109EC30F10508F067
:10063000A6C08827EE58FF4F8F4FE7C521B181E054
:1006400090E000900E0202C0880F991F0A94E2F712
:100650008095822381B9089524B181E090E00090D3
:100660000E0202C0880F991F0A94E2F78095822338
:1006700084B9089527B181E090E000900E0202C095
:10068000880F991F0A94E2F78095822387B908950D
:100690002AB181E090E000900E0202C0880F991FFD
:1006A0000A94E2F7809582238AB908952DB181E0FA
:1006B00090E000900E0202C0880F991F0A94E2F7A2
:1006C000809582238DB9089520B381E090E0009059
:1006D0000E0202C0880F991F0A94E2F780958223C8
:1006E00080BB089523B381E090E000900E0202C029
:1006F000880F991F0A94E2F78095822383BB08959F
:10070000E1E0F1E0208181E090E000900E0202C083
:10071000880F991F0A94E2F78095822380830895B9
:10072000E4E0F1E0208181E090E000900E0202C060
:10073000880F991F0A94E2F7809582238083089599
:10074000E7E0F1E0208181E090E000900E0202C03D
:10075000880F991F0A94E2F7809582238083089579
:10076000EAE0F1E0208181E090E000900E0202C01A
:10077000880F991F0A94E2F7809582238083089559
:10078000E09110028E2F90E0FC01E154F109EC3071
:10079000F10508F098C08827E258FF4F8F4F35C504
:1007A00080B190E000900E0202C0959587950A9462
:1007B000E2F780FD8AC080E3089583B190E0009065
:1007C0000E0202C0959587950A94E2F780FD7FC0DE
:1007D00080E3089586B190E000900E0202C09595E6
:1007E00087950A94E2F780FD74C080E3089589B18B
:1007F00090E000900E0202C0959587950A94E2F76A
:1008000080FD69C080E308958CB190E000900E02F5
:1008100002C0959587950A94E2F780FD5EC080E35B
:1008200008958FB190E000900E0202C095958795D3
:100830000A94E2F780FD53C080E3089582B390E00C
:1008400000900E0202C0959587950A94E2F780FD0C
:1008500048C080E308958091000190E000900E026E
:1008600002C0959587950A94E2F780FD3CC080E32D
:1008700008958091030190E000900E0202C09595CA
:1008800087950A94E2F780FD30C080E30895809157
:10089000060190E000900E0202C0959587950A949B
:1008A000E2F780FD24C080E308958091090190E083
:1008B00000900E0202C0959587950A94E2F780FD9C
:1008C00018C080E3089580E3089581E3089581E3EB
:1008D000089581E3089581E3089581E3089581E314
:1008E000089581E3089581E3089581E3089581E304
:1008F000089581E30895209111023091120281E060
:1009000090E02033310511F480E090E0089580E319
:1009100090E09093120280931102109214021092B0
:100920001302089581E390E09093120280931102E4
:100930001092800085E08093810086EF92EC909386
:10094000850080938400EFE6F0E080818160808301
:1009500008951F920F920FB60F9211240BB60F92AB
:100960002F933F934F935F936F937F938F939F93B7
:10097000AF93BF93EF93FF93809113029091140272
:100980000196909314028093130286EF92EC909359
:100990008500809384008091130290911402883521
:1009A000924029F4B4DFEFE6F0E080811082FF91FD
:1009B000EF91BF91AF919F918F917F916F915F91D7
:1009C0004F913F912F910F900BBE0F900FBE0F9044
:1009D0001F9018959FEB980F9C3010F4893421F4E8
:1009E00081E48093170202C080931702683071057A
:1009F0003CF085E090E0909316028093150204C0CD
:100A00007093160260931502E09117028E2F90E00A
:100A1000FC01E154F109EC30F10508F0A6C088278B
:100A2000E657FF4F8F4FF1C321B181E090E0009076
:100A3000150202C0880F991F0A94E2F7809582235D
:100A400081B9089524B181E090E00090150202C0C0
:100A5000880F991F0A94E2F78095822384B908953C
:100A600027B181E090E00090150202C0880F991F25
:100A70000A94E2F78095822387B908952AB181E02C
:100A800090E00090150202C0880F991F0A94E2F7C7
:100A9000809582238AB908952DB181E090E000907D
:100AA000150202C0880F991F0A94E2F780958223ED
:100AB0008DB9089520B381E090E00090150202C046
:100AC000880F991F0A94E2F78095822380BB0895CE
:100AD00023B381E090E00090150202C0880F991FB7
:100AE0000A94E2F78095822383BB0895E1E0F1E068
:100AF000208181E090E00090150202C0880F991FCC
:100B00000A94E2F78095822380830895E4E0F1E07F
:100B1000208181E090E00090150202C0880F991FAB
:100B20000A94E2F78095822380830895E7E0F1E05C
:100B3000208181E090E00090150202C0880F991F8B
:100B40000A94E2F78095822380830895EAE0F1E039
:100B5000208181E090E00090150202C0880F991F6B
:100B60000A94E2F78095822380830895E09117022A
:100B70008E2F90E0FC01E154F109EC30F10508F012
:100B800006C18827EA56FF4F8F4F3FC380B190E0E0
:100B90000090150202C0959587950A94E2F780FFB0
:100BA00006C081E38093230280912302089580E3AD
:100BB0008093230280912302089583B190E00090F6
:100BC000150202C0959587950A94E2F780FF06C04A
:100BD00081E38093230280912302089580E3809330
:100BE000230280912302089586B190E000901502BF
:100BF00002C0959587950A94E2F780FF06C081E3CD
:100C00008093230280912302089580E3809323023E
:100C100080912302089589B190E00090150202C0EE
:100C2000959587950A94E2F780FF06C081E380934B
:100C3000230280912302089580E380932302809110
:100C4000230208958CB190E00090150202C09595A2
:100C500087950A94E2F780FF06C081E38093230220
:100C600080912302089580E38093230280912302E0
:100C700008958FB190E00090150202C09595879578
:100C80000A94E2F780FF06C081E3809323028091FB
:100C90002302089580E38093230280912302089524
:100CA00082B390E00090150202C0959587950A9452
:100CB000E2F780FF06C081E3809323028091230244
:100CC000089580E380932302809123020895809108
:100CD000000190E00090150202C0959587950A9456
:100CE000E2F780FF06C081E3809323028091230214
:100CF000089580E3809323028091230208958091D8
:100D0000030190E00090150202C0959587950A9422
:100D1000E2F780FF06C081E38093230280912302E3
:100D2000089580E3809323028091230208958091A7
:100D3000060190E00090150202C0959587950A94EF
:100D4000E2F780FF06C081E38093230280912302B3
:100D5000089580E380932302809123020895809177
:100D6000090190E00090150202C0959587950A94BC
:100D7000E2F780FF06C081E3809323028091230283
:100D8000089580E38093230280912302089580E3F5
:100D900008959FEB980F9C3010F4893421F481E47E
:100DA00080931A0202C080931A026830710538F0ED
:100DB00083E090E0909319028093180204C070932E
:100DC000190260931802E0911A028E2F90E0FC0144
:100DD000E154F109EC30F10508F09BC08827EE558D
:100DE000FF4F8F4F12C221B181E090E000901802B6
:100DF00002C0880F991F0A94E2F7822B81B90895E7
:100E000024B181E090E00090180202C0880F991F81
:100E10000A94E2F7822B84B9089527B181E090E02B
:100E20000090180202C0880F991F0A94E2F7822BE3
:100E300087B908952AB181E090E00090180202C0BD
:100E4000880F991F0A94E2F7822B8AB908952DB171
:100E500081E090E00090180202C0880F991F0A9468
:100E6000E2F7822B8DB9089520B381E090E00090E5
:100E7000180202C0880F991F0A94E2F7822B80BBE8
:100E8000089523B381E090E00090180202C0880F1B
:100E9000991F0A94E2F7822B83BB0895E1E0F1E009
:100EA000208181E090E00090180202C0880F991F15
:100EB0000A94E2F7822B80830895E4E0F1E0208138
:100EC00081E090E00090180202C0880F991F0A94F8
:100ED000E2F7822B80830895E7E0F1E0208181E052
:100EE00090E00090180202C0880F991F0A94E2F760
:100EF000822B80830895EAE0F1E0208181E090E098
:100F00000090180202C0880F991F0A94E2F7822B02
:100F100080830895282FE0911A028E2F90E0FC0123
:100F2000E154F109EC30F10508F053C18827E2558E
:100F3000FF4F8F4F6AC1203371F422B181E090E0FE
:100F40000090180202C0880F991F0A94E2F780955A
:100F5000822382B9089522B181E090E000901802C6
:100F600002C0880F991F0A94E2F7822B82B9089574
:100F7000203371F425B181E090E00090180202C0A6
:100F8000880F991F0A94E2F78095822385B9089506
:100F900025B181E090E00090180202C0880F991FEF
:100FA0000A94E2F7822B85B90895203371F428B1B1
:100FB00081E090E00090180202C0880F991F0A9407
:100FC000E2F78095822388B9089528B181E090E006
:100FD0000090180202C0880F991F0A94E2F7822B32
:100FE00088B90895203371F42BB181E090E000902E
:100FF000180202C0880F991F0A94E2F78095822395
:101000008BB908952BB181E090E00090180202C0E6
:10101000880F991F0A94E2F7822B8BB90895203329
:1010200071F42EB181E090E00090180202C0880FA8
:10103000991F0A94E2F7809582238EB908952EB104
:1010400081E090E00090180202C0880F991F0A9476
:10105000E2F7822B8EB90895203371F421B381E039
:1010600090E00090180202C0880F991F0A94E2F7DE
:101070008095822381BB089521B381E090E00090A8
:10108000180202C0880F991F0A94E2F7822B81BBD5
:101090000895203371F424B381E090E000901802A9
:1010A00002C0880F991F0A94E2F78095822384BBBF
:1010B000089524B381E090E00090180202C0880FE8
:1010C000991F0A94E2F7822B84BB0895203381F4A0
:1010D000E2E0F1E0208181E090E00090180202C09F
:1010E000880F991F0A94E2F78095822380830895E0
:1010F000E2E0F1E0208181E090E00090180202C07F
:10110000880F991F0A94E2F7822B80830895203379
:1011100081F4E5E0F1E0208181E090E000901802A8
:1011200002C0880F991F0A94E2F78095822380837A
:101130000895E5E0F1E0208181E090E00090180260
:1011400002C0880F991F0A94E2F7822B80830895CA
:10115000203381F4E8E0F1E0208181E090E000902C
:10116000180202C0880F991F0A94E2F78095822323
:1011700080830895E8E0F1E0208181E090E0009034
:10118000180202C0880F991F0A94E2F7822B80830D
:101190000895203381F4EBE0F1E0208181E090E0DC
:1011A0000090180202C0880F991F0A94E2F78095F8
:1011B000822380830895EBE0F1E0208181E090E0DC
:1011C0000090180202C0880F991F0A94E2F7822B40
:1011D000808308955098589A83E080936900E89A34
:1011E00008951F920F920FB60F9211248F939F9321
:1011F00081E090E09093200280931F029F918F9155
:101200000F900FBE0F901F901895EE0FFF1F881FB5
:101210008BBF0790F691E02D19940F931F93CF93F6
:10122000DF93869F8001879F100D969F100D1124DC
:10123000C8010DD0EC01009721F0A80160E070E03A
:1012400027D1CE01DF91CF911F910F9108950F9378
:101250001F93CF93DF938230910510F482E090E0EA
:10126000E0912602F091270220E030E0A0E0B0E01B
:10127000309719F140815181028113814817590734
:10128000C8F08417950769F4109731F012960C9303
:10129000129713961C9327C00093260210932702DF
:1012A00022C02115310519F04217530718F49A018D
:1012B000BD01EF01DF01F801DBCF21153105F9F0A8
:1012C000281B390B2430310580F48A819B816115FC
:1012D000710521F0FB019383828304C09093270260
:1012E00080932602FE01329644C0FE01E20FF31FF6
:1012F0008193919322503109398328833AC02091F8
:10130000240230912502232B41F4209102023091D6
:101310000302309325022093240220910002309191
:1013200001022115310541F42DB73EB74091040269
:1013300050910502241B350BE0912402F091250207
:10134000E217F307A0F42E1B3F0B2817390778F09C
:10135000AC014E5F5F4F2417350748F04E0F5F1FFB
:1013600050932502409324028193919302C0E0E0C0
:10137000F0E0CF01DF91CF911F910F910895CF93AE
:10138000DF93009709F481C0FC0132971382128227
:10139000A0912602B0912702109781F4208131811B
:1013A000820F931F209124023091250228173907BC
:1013B00051F5F0932502E093240267C0ED0120E08F
:1013C00030E0CE17DF0740F44A815B819E01411572
:1013D0005105F1F0EA01F5CFD383C28340815181F9
:1013E000840F951FC817D90759F488819981840FF4
:1013F000951F0296918380838A819B819383828348
:101400002115310529F4F0932702E09326023DC00F
:10141000E901FB83EA8349915991C40FD51FEC1769
:10142000FD0761F480819181840F951F0296E90187
:1014300099838883828193819B838A83E0E0F0E0B3
:1014400012968D919C911397009719F0FD01DC0184
:10145000F7CF8D919C9111979D012E5F3F4F820F89
:10146000931F20912402309125022817390769F42F
:10147000309729F4109227021092260202C013829C
:101480001282B0932502A0932402DF91CF91089598
:10149000DC0101C06D9341505040E0F70895F8948D
:0214A000FFCF7C
:0A14A20000002802200001000000F5
:00000001FF
