S01E00004C454B544F525F4D494B524F434F4E54524F4C4C45522E7372656350
S1130000B9C000000C949208D5C00000D3C0000011
S1130010D1C00000CFC00000CDC00000CBC00000A4
S1130020C9C00000C7C00000C5C00000C3C00000B4
S1130030C1C00000BFC00000BDC00000BBC00000C4
S1130040B9C00000B7C00000B5C00000B3C00000D4
S113005021C40000AFC00000ADC00000ABC0000070
S1130060A9C00000A7C00000A5C00000A3C00000F4
S1130070A1C000009FC000009DC000009BC0000004
S113008099C0000097C0000095C0000093C0000014
S113009091C000008FC000008DC000008BC0000024
S11300A089C0000087C0000085C0000083C0000034
S11300B081C000007FC000007DC000007BC0000044
S11300C079C0000077C0000075C0000073C0000054
S11300D071C000006FC000006DC000006BC0000064
S11300E069C00000C602D402E202F002FE020C0360
S11300F01A03280367033803480358037803850366
S113010092039F03AC03B903C603D3030B04E103B7
S1130110EF03FD03B504C304D104DF04ED04FB04C1
S113012009051705560527053705470567057E05A3
S11301309505AC05C305DA05F10508066806200631
S1130140380650069406A106AE06BB06C806D506B8
S1130150E206EF062A07FE060D071C073C075907AF
S113016076079307B007CD07EA0707088A08280827
S113017049086A0811241FBECFEFD1E2DEBFCDBF0C
S113018000E00CBF12E0A0E0B2E0E4EEF3E100E036
S11301900BBF02C007900D92AA30B107D9F722E035
S11301A0AAE0B2E001C01D92A632B207E1F7DBD0AB
S11301B00C94F00925CF80911C02803399F480912E
S11301C01902803379F410921B0210921A0281E012
S11301D080931F0286E58093200210921B021092E6
S11301E01A026FC080911C02803301F580911902BC
S11301F08133E1F481E090E090931B0280931A0232
S11302008091060290910702019719F010921F0243
S1130210089581E080931F0284E58093200281E0A9
S113022090E090931B0280931A0251C080911C02AB
S1130230813301F5809119028033E1F48AE090E082
S113024090931B0280931A028091060290910702F8
S1130250019719F010921F02089581E080931F0204
S11302608FE4809320028AE090E090931B028093B5
S11302701A022DC080911C02813319F58091190254
S11302808133F9F48BE090E090931B0280931A027F
S11302908091060290910702019719F010921F02B3
S11302A00895D1D2892B09F4DED281E080931F0214
S11302B08FE4809320028BE090E090931B02809364
S11302C01A028091060290910702019721F410927C
S11302D007021092060208951092900081E0809324
S11302E091008FE791EC9093950080939400C09BCC
S11302F0FECF1092910081E088BB0895CF93DF93E5
S113030010921E0210921D02C1E0D1E08FEF88838B
S1130310E3DF1882DF91CF91089510921E021092AC
S11303201D0280911D0290911E02892BD1F3089524
S11303301092010180E18093B00081E08093B100CC
S113034083E88093B4000895CF93DF93D82FC8E057
S1130350E4DFC2DFC1DFD0FDD1DFD695C150C1F7E4
S1130360DF91CF910895CF93DF9300D0CDB7DEB75F
S113037062E070E082E4E4D063E070E082E4CBD237
S113038064E070E082E4A6D4C6D6D2DF789481E437
S11303908983809120028A831B82C6D0ACD00BDF74
S11303A080911F028130C9F7809120028A83CE0197
S11303B001960CD08EEEC8DFB0DFA0DF01D0EDCF08
S11303C080910A0290910B027BC708958F929F92AD
S11303D0AF92BF92CF92DF92EF92FF920F931F934F
S11303E0CF93DF9322E08830920709F46CC0EC01CC
S11303F0FC0101900020E9F73197E81BF90B5F013C
S1130400CF01880F991F61E070E00396A7D69093FF
S11304100B0280930A021A141B040CF056C07E01CE
S1130420A0E0B0E060E070E028E030E001E010E03F
S11304300F2EF7E09F2EF02D812CF701C1917F0143
S113044047E050E0D0E0215031092830310520F058
S11304506F5F7F4F292D382DFE01042E02C0F595C4
S1130460E7950A94E2F7E0FF12C0FB01EA0FFB1FD5
S1130470E80FF91F6801022E02C0CC0CDD1C0A949F
S1130480E2F7D080CD28C0822150310911C0FB0190
S1130490EA0FFB1FE80FF91F215031096801022EF2
S11304A002C0CC0CDD1C0A94E2F7D080CD28C082B7
S11304B04150510940F6615071091196AA16BB06C4
S11304C009F0BBCF02C080E090E0DF91CF911F9193
S11304D00F91FF90EF90DF90CF90BF90AF909F90DF
S11304E08F90089580911C02803311F4B4C4089550
S11304F081E3B1C40895DBD2813321F480931C02DB
S1130500F1CF089580E380931C02ECCF089580918D
S11305101902813331F497D1892B19F480E39BC4F8
S1130520089581E398C40895D3D0813321F480934E
S11305301902EDCF089580E380931902E8CF08955E
S11305409FEB980F9C3010F4893439F481E4809344
S11305500E026830710524F419C06830710534F056
S113056082E090E090930D0280930C02E0910E02E1
S11305708E2F90E0FC01E154F109EC30F10508F014
S1130580A6C08827EE58FF4F8F4FE0C521B181E008
S113059090E000900C0202C0880F991F0A94E2F7C1
S11305A08095822381B9089524B181E090E0009080
S11305B00C0202C0880F991F0A94E2F780958223E7
S11305C084B9089527B181E090E000900C0202C044
S11305D0880F991F0A94E2F78095822387B90895BA
S11305E02AB181E090E000900C0202C0880F991FAC
S11305F00A94E2F7809582238AB908952DB181E0A7
S113060090E000900C0202C0880F991F0A94E2F750
S1130610809582238DB9089520B381E090E0009005
S11306200C0202C0880F991F0A94E2F78095822376
S113063080BB089523B381E090E000900C0202C0D7
S1130640880F991F0A94E2F78095822383BB08954B
S1130650E1E0F1E0208181E090E000900C0202C032
S1130660880F991F0A94E2F7809582238083089566
S1130670E4E0F1E0208181E090E000900C0202C00F
S1130680880F991F0A94E2F7809582238083089546
S1130690E7E0F1E0208181E090E000900C0202C0EC
S11306A0880F991F0A94E2F7809582238083089526
S11306B0EAE0F1E0208181E090E000900C0202C0C9
S11306C0880F991F0A94E2F7809582238083089506
S11306D0E0910E028E2F90E0FC01E154F109EC3020
S11306E0F10508F098C08827E258FF4F8F4F2EC5B8
S11306F080B190E000900C0202C0959587950A9411
S1130700E2F780FD8AC080E3089583B190E0009011
S11307100C0202C0959587950A94E2F780FD7FC08C
S113072080E3089586B190E000900C0202C0959594
S113073087950A94E2F780FD74C080E3089589B137
S113074090E000900C0202C0959587950A94E2F718
S113075080FD69C080E308958CB190E000900C02A4
S113076002C0959587950A94E2F780FD5EC080E308
S113077008958FB190E000900C0202C09595879582
S11307800A94E2F780FD53C080E3089582B390E0B9
S113079000900C0202C0959587950A94E2F780FDBB
S11307A048C080E308958091000190E000900C021D
S11307B002C0959587950A94E2F780FD3CC080E3DA
S11307C008958091030190E000900C0202C0959579
S11307D087950A94E2F780FD30C080E30895809104
S11307E0060190E000900C0202C0959587950A944A
S11307F0E2F780FD24C080E308958091090190E030
S113080000900C0202C0959587950A94E2F780FD4A
S113081018C080E3089580E3089581E3089581E397
S1130820089581E3089581E3089581E3089581E3C0
S1130830089581E3089581E3089581E3089581E3B0
S1130840089581E3089580910F0290911002089514
S113085080E390E09093100280930F0210921202B2
S113086010921102089581E390E090931002809316
S11308700F021092800085E08093810086EF92EC55
S11308809093850080938400EFE6F0E0808181609E
S1130890808308951F920F920FB60F9211240BB606
S11308A00F922F933F934F935F936F937F938F9305
S11308B09F93AF93BF93EF93FF9380911102909115
S11308C012020196909312028093110286EF92EC29
S11308D0909385008093840080911102909112027C
S11308E08835924029F4B4DFEFE6F0E0808110828D
S11308F0FF91EF91BF91AF919F918F917F916F91F4
S11309005F914F913F912F910F900BBE0F900FBEAF
S11309100F901F9018959FEB980F9C3010F489341A
S113092021F481E48093150202C08093150268309B
S113093071053CF081E090E09093140280931302DF
S113094004C07093140260931302E09115028E2F79
S113095090E0FC01E154F109EC30F10508F0A6C087
S11309608827E657FF4F8F4FF1C321B181E090E014
S11309700090130202C0880F991F0A94E2F7809531
S1130980822381B9089524B181E090E0009013029C
S113099002C0880F991F0A94E2F78095822384B9D4
S11309A0089527B181E090E00090130202C0880FFF
S11309B0991F0A94E2F78095822387B908952AB192
S11309C081E090E00090130202C0880F991F0A94FE
S11309D0E2F7809582238AB908952DB181E090E0F1
S11309E00090130202C0880F991F0A94E2F78095C1
S11309F082238DB9089520B381E090E00090130222
S1130A0002C0880F991F0A94E2F78095822380BB65
S1130A10089523B381E090E00090130202C0880F90
S1130A20991F0A94E2F78095822383BB0895E1E03D
S1130A30F1E0208181E090E00090130202C0880F71
S1130A40991F0A94E2F78095822380830895E4E055
S1130A50F1E0208181E090E00090130202C0880F51
S1130A60991F0A94E2F78095822380830895E7E032
S1130A70F1E0208181E090E00090130202C0880F31
S1130A80991F0A94E2F78095822380830895EAE00F
S1130A90F1E0208181E090E00090130202C0880F11
S1130AA0991F0A94E2F78095822380830895E09148
S1130AB015028E2F90E0FC01E154F109EC30F105B0
S1130AC008F006C18827EA56FF4F8F4F3FC380B115
S1130AD090E00090130202C0959587950A94E2F77E
S1130AE080FF06C081E38093210280912102089552
S1130AF080E38093210280912102089583B190E0E4
S1130B000090130202C0959587950A94E2F780FF3E
S1130B1006C081E38093210280912102089580E33D
S1130B208093210280912102089586B190E0009083
S1130B30130202C0959587950A94E2F780FF06C0D8
S1130B4081E38093210280912102089580E38093C0
S1130B50210280912102089589B190E0009013024E
S1130B6002C0959587950A94E2F780FF06C081E359
S1130B708093210280912102089580E380932102D1
S1130B808091210208958CB190E00090130202C07C
S1130B90959587950A94E2F780FF06C081E38093D8
S1130BA0210280912102089580E3809321028091A3
S1130BB0210208958FB190E00090130202C0959530
S1130BC087950A94E2F780FF06C081E380932102AF
S1130BD080912102089580E3809321028091210273
S1130BE0089582B390E00090130202C09595879512
S1130BF00A94E2F780FF06C081E38093210280918A
S1130C002102089580E380932102809121020895B6
S1130C108091000190E00090130202C095958795A1
S1130C200A94E2F780FF06C081E380932102809159
S1130C302102089580E38093210280912102089586
S1130C408091030190E00090130202C0959587956E
S1130C500A94E2F780FF06C081E380932102809129
S1130C602102089580E38093210280912102089556
S1130C708091060190E00090130202C0959587953B
S1130C800A94E2F780FF06C081E3809321028091F9
S1130C902102089580E38093210280912102089526
S1130CA08091090190E00090130202C09595879508
S1130CB00A94E2F780FF06C081E3809321028091C9
S1130CC02102089580E380932102809121020895F6
S1130CD080E308959FEB980F9C3010F4893421F43D
S1130CE081E48093180202C0809318026830710571
S1130CF038F081E090E0909317028093160204C0CC
S1130D007093170260931602E09118028E2F90E000
S1130D10FC01E154F109EC30F10508F09BC088278F
S1130D20EE55FF4F8F4F12C221B181E090E0009049
S1130D30160202C0880F991F0A94E2F7822B81B928
S1130D40089524B181E090E00090160202C0880F5B
S1130D50991F0A94E2F7822B84B9089527B181E0A0
S1130D6090E00090160202C0880F991F0A94E2F7DF
S1130D70822B87B908952AB181E090E00090160291
S1130D8002C0880F991F0A94E2F7822B8AB908954A
S1130D902DB181E090E00090160202C0880F991FE7
S1130DA00A94E2F7822B8DB9089520B381E090E094
S1130DB00090160202C0880F991F0A94E2F7822B52
S1130DC080BB089523B381E090E00090160202C036
S1130DD0880F991F0A94E2F7822B83BB0895E1E000
S1130DE0F1E0208181E090E00090160202C0880FBB
S1130DF0991F0A94E2F7822B80830895E4E0F1E0DE
S1130E00208181E090E00090160202C0880F991FB3
S1130E100A94E2F7822B80830895E7E0F1E02081D1
S1130E2081E090E00090160202C0880F991F0A9496
S1130E30E2F7822B80830895EAE0F1E0208181E0EB
S1130E4090E00090160202C0880F991F0A94E2F7FE
S1130E50822B80830895282FE09118028E2F90E032
S1130E60FC01E154F109EC30F10508F053C1882785
S1130E70E255FF4F8F4F6AC1203371F422B181E0F4
S1130E8090E00090160202C0880F991F0A94E2F7BE
S1130E908095822382B9089522B181E090E0009088
S1130EA0160202C0880F991F0A94E2F7822B82B9B6
S1130EB00895203371F425B181E090E0009016028A
S1130EC002C0880F991F0A94E2F78095822385B99E
S1130ED0089525B181E090E00090160202C0880FC9
S1130EE0991F0A94E2F7822B85B90895203371F48F
S1130EF028B181E090E00090160202C0880F991F8B
S1130F000A94E2F78095822388B9089528B181E094
S1130F1090E00090160202C0880F991F0A94E2F72D
S1130F20822B88B90895203371F42BB181E090E0CD
S1130F300090160202C0880F991F0A94E2F7809568
S1130F4082238BB908952BB181E090E000901602C2
S1130F5002C0880F991F0A94E2F7822B8BB9089577
S1130F60203371F42EB181E090E00090160202C0AB
S1130F70880F991F0A94E2F7809582238EB9089509
S1130F802EB181E090E00090160202C0880F991FF4
S1130F900A94E2F7822B8EB90895203371F421B3B9
S1130FA081E090E00090160202C0880F991F0A9415
S1130FB0E2F78095822381BB089521B381E090E01C
S1130FC00090160202C0880F991F0A94E2F7822B40
S1130FD081BB0895203371F424B381E090E0009044
S1130FE0160202C0880F991F0A94E2F780958223A3
S1130FF084BB089524B381E090E00090160202C0FF
S1131000880F991F0A94E2F7822B84BB089520333A
S113101081F4E2E0F1E0208181E090E000901602AA
S113102002C0880F991F0A94E2F780958223808377
S11310300895E2E0F1E0208181E090E00090160262
S113104002C0880F991F0A94E2F7822B80830895C7
S1131050203381F4E5E0F1E0208181E090E000902C
S1131060160202C0880F991F0A94E2F78095822322
S113107080830895E5E0F1E0208181E090E0009034
S1131080160202C0880F991F0A94E2F7822B80830C
S11310900895203381F4E8E0F1E0208181E090E0DC
S11310A00090160202C0880F991F0A94E2F78095F7
S11310B0822380830895E8E0F1E0208181E090E0DC
S11310C00090160202C0880F991F0A94E2F7822B3F
S11310D080830895203381F4EBE0F1E0208181E006
S11310E090E00090160202C0880F991F0A94E2F75C
S11310F08095822380830895EBE0F1E0208181E0F4
S113110090E00090160202C0880F991F0A94E2F73B
S1131110822B808308955098589A83E080936900C5
S1131120E89A08951F920F920FB60F9211248F938D
S11311309F9381E090E090931E0280931D029F9103
S11311408F910F900FBE0F901F901895EE0FFF1FF9
S1131150881F8BBF0790F691E02D19940F931F936E
S1131160CF93DF93869F8001879F100D969F100D6C
S11311701124C8010DD0EC01009721F0A80160E012
S113118070E027D1CE01DF91CF911F910F91089587
S11311900F931F93CF93DF938230910510F482E075
S11311A090E0E0912402F091250220E030E0A0E0FC
S11311B0B0E0309719F140815181028113814817C1
S11311C05907C8F08417950769F4109731F01296FF
S11311D00C93129713961C9327C000932402109328
S11311E0250222C02115310519F04217530718F4BE
S11311F09A01BD01EF01DF01F801DBCF21153105B3
S1131200F9F0281B390B2430310580F48A819B8145
S11312106115710521F0FB019383828304C09093CF
S1131220250280932402FE01329644C0FE01E20F9F
S1131230F31F8193919322503109398328833AC053
S11312402091220230912302232B41F420910202A7
S11312503091030230932302209322022091000252
S1131260309101022115310541F42DB73EB740916B
S1131270040250910502241B350BE0912202F091E7
S11312802302E217F307A0F42E1B3F0B281739079C
S113129078F0AC014E5F5F4F2417350748F04E0FCE
S11312A05F1F50932302409322028193919302C0C3
S11312B0E0E0F0E0CF01DF91CF911F910F9108950D
S11312C0CF93DF93009709F481C0FC013297138216
S11312D01282A0912402B0912502109781F42081FA
S11312E03181820F931F209122023091230228170B
S11312F0390751F5F0932302E093220267C0ED0110
S113130020E030E0CE17DF0740F44A815B819E0184
S113131041155105F1F0EA01F5CFD383C283408131
S11313205181840F951FC817D90759F48881998171
S1131330840F951F0296918380838A819B81938376
S113134082832115310529F4F0932502E0932402C8
S11313503DC0E901FB83EA8349915991C40FD51F2C
S1131360EC17FD0761F480819181840F951F02962B
S1131370E90199838883828193819B838A83E0E056
S1131380F0E012968D919C911397009719F0FD014E
S1131390DC01F7CF8D919C9111979D012E5F3F4FFA
S11313A0820F931F209122023091230228173907BC
S11313B069F4309729F4109225021092240202C095
S11313C013821282B0932302A0932202DF91CF9161
S11313D00895DC0101C06D9341505040E0F7089539
S10713E0F894FFCFAB
S10D13E400002602200001000000B2
S9030000FC
