:100000000C9434000C94B0000C9451000C945100EA
:100010000C9451000C9451000C9451000C9451001C
:100020000C9451000C9451000C9451000C9451000C
:100030000C9451000C9451000C9451000C945100FC
:100040000C9451000C9451000C9451000C945100EC
:100050000C9451000C9451000C9451000C945100DC
:100060000C9451000C94510011241FBECFEFD8E026
:10007000DEBFCDBF11E0A0E0B1E0E6E1F2E002C0FA
:1000800005900D92AA30B107D9F721E0AAE0B1E0BE
:1000900001C01D92A031B207E1F70E947C000C94D0
:1000A00009010C94000028982AE22A95F1F700C073
:1000B00098E080FF02C0289A01C028982AE22A9579
:1000C000F1F700C086959150A1F7289A8AE28A95A7
:1000D000F1F700C0289808958AE28A95F1F700C0E8
:1000E00088E09AE29A95F1F700C08150D1F78AE250
:1000F0008A95F1F700C0089552985A9A83E0809348
:100100006900E89A389A1092C100209A84B184B9A3
:100110007894C1E0D1E00C2F1D2FFF24FA94409A6F
:100120008FE99FE00197F1F700C0000040988FE948
:100130009FE00197F1F700C00000809100018883E3
:10014000809100018983809100018A83802F912F03
:100150000E94D90091E0C530D90709F7F5B8DFCF83
:100160001F920F920FB60F9211242F933F934F932C
:100170005F936F937F938F939F93AF93BF93EF930F
:10018000FF9381E60E9453000E946C00809300015F
:10019000FF91EF91BF91AF919F918F917F916F915F
:1001A0005F914F913F912F910F900FBE0F901F9035
:1001B00018950F931F93CF93DF93E0910C01F0916B
:1001C0000D01238121FF1BC08C01D0E0C0E0F801AC
:1001D00081918F0160910C0170910D01DB011896E6
:1001E000ED91FC911997882331F00995892B79F3CA
:1001F000DFEFCFEFECCF8AE00995892B19F08FEF75
:100200009FEF02C08D2F9C2FDF91CF911F910F91F7
:060210000895F894FFCFF1
:0A02160030303030006161610000FB
:00000001FF
