S02B000043454E5452414C434F4D50555445525F4D494B524F434F4E54524F4C4C45525F4D4F445441474552C5
S113000071C00000A2C000007FC000007DC00000DD
S11300107BC0000079C0000077C0000075C00000FC
S113002073C0000071C000006FC000006DC000000C
S11300306BC0000069C0000067C0000065C000001C
S113004063C0000061C000005FC000005DC000002C
S11300505BC0000059C0000057C0000055C000003C
S113006053C0000051C000004FC000004DC000004C
S11300704BC0000049C0000047C0000045C000005C
S113008043C0000041C000003FC000003DC000006C
S11300903BC0000039C0000037C0000035C000007C
S11300A033C0000031C000002FC000002DC000008C
S11300B02BC0000029C0000027C0000025C000009C
S11300C023C0000021C000001FC000001DC00000AC
S11300D01BC0000019C0000017C0000015C00000BC
S11300E013C0000011241FBECFEFD1E2DEBFCDBF8D
S11300F000E00CBF22E0A0E0B2E001C01D92A130FC
S1130100B207E1F702D08EC07BCFCF93DF9300D04C
S1130110CDB7DEB71A8219821B825098589A83E0B1
S113012080936900E89A389A3D9A1092C100209A07
S11301300898789480910002813611F4459A01C0A0
S11301404598CE01019660D0F5CF1F920F920FB65D
S11301500F9211240BB60F922F933F934F935F93FB
S11301606F937F938F939F93AF93BF93EF93FF937B
S113017015D080930002FF91EF91BF91AF919F91B1
S11301808F917F916F915F914F913F912F910F903C
S11301900BBE0F900FBE0F901F90189580E18A95AB
S11301A0F1F795E29A95F1F7000020E030E080E065
S11301B061E070E0009B09C0AB01022E02C0440F55
S11301C0551F0A94E2F7842B09C0AB01022E02C02A
S11301D0440F551F0A94E2F74095842395E29A95BB
S11301E0F1F700002F5F3F4F2830310519F795E2F2
S11301F09A95F1F700000895E0ECF0E0908195FF06
S1130200FDCF8093C6000895CF93DF93EC018881DE
S1130210882329F02196F0DF89918111FCCFDF91A9
S10B0220CF910895F894FFCF7B
S9030000FC
