:1000000071C0000071C200008CC000008AC00000F6
:1000100088C0000086C0000084C0000082C00000CC
:1000200080C000007EC000007CC000007AC00000DC
:1000300078C0000076C0000074C0000072C00000EC
:1000400070C000006EC000006CC000006AC00000FC
:1000500068C0000066C0000064C0000062C000000C
:1000600060C000005EC000005CC000005AC000001C
:1000700058C0000056C0000054C0000052C000002C
:1000800050C000004EC000004CC000004AC000003C
:1000900048C0000046C0000044C0000042C000004C
:1000A00040C000003EC000003CC000003AC000005C
:1000B00038C0000036C0000034C0000032C000006C
:1000C00030C000002EC000002CC000002AC000007C
:1000D00028C0000026C0000024C0000022C000008C
:1000E00020C0000011241FBECFEFD1E2DEBFCDBF84
:1000F00000E00CBF12E0A0E0B2E0ECEDF7E000E0C1
:100100000BBF02C007900D92A830B107D9F722E0CB
:10011000A8E0B2E001C01D92AE31B207E1F702D013
:100120005BC36ECF2EE448E060E875E280E090E0CB
:10013000ACD0D3D1879878947F9BFECF36D135D180
:1001400002D0F6D0F9CF6F927F928F929F92AF92AA
:10015000BF92CF92DF92EF92FF920F931F93CF93B4
:10016000DF9322E08630920709F469C0FC01019018
:100170000020E9F73197E81BF90BEF010AF421960B
:100180008C01D595C79561E070E0CE010196E2D172
:100190006C01909309028093080262E08630960712
:1001A00009F450C04E01880C991CD6FD4EC0612C3C
:1001B000712C27E030E047E050E0A0E0B0E081E0C3
:1001C00090E0F801C1918F01C11105C0F601EA0F5D
:1001D000FB1F11822BC064E070E0EC2FF0E03323B2
:1001E00014F427E030E0552394F51196A6014A0F48
:1001F0005B1FEA01188247E050E029C07601EA0E51
:10020000FB1E5C01042E02C0AA0CBB1C0A94E2F780
:10021000E701B880AB28A88241505109225031092A
:1002200020C041505109225031091BC0DFEF6D1A27
:100230007D0A861497042CF68C2D9D2D17C080E026
:1002400090E014C080E090E011C09D2D0FC07F01B0
:10025000022E02C0F594E7940A94E2F7E0FEE1CFA3
:10026000CDCF6150710909F0BACFE0CFDF91CF91C6
:100270001F910F91FF90EF90DF90CF90BF90AF90C4
:100280009F908F907F906F9008950F931F93522FA0
:100290008B019C010C52114021093109053D104C84
:1002A00021403105D0F545504430B8F520E2209387
:1002B000C00028E12093C100440F4093C200553490
:1002C00031F4E2ECF0E020812062208307C05F344B
:1002D00029F4E2ECF0E0208120632083DC01CB01F3
:1002E000880F991FAA1FBB1F880F991FAA1FBB1F2A
:1002F0009C01AD01220F331F441F551F220F331FD6
:10030000441F551F60E074E284EF90E001D121505A
:1003100031093093C5002093C4001F910F910895B7
:10032000E0ECF0E0908195FFFDCF8093C60008954A
:10033000CF93DF93EC018881882329F02196F0DFA9
:1003400089918111FCCFDF91CF9108951092900097
:1003500081E0809391008FE791EC909395008093DA
:100360009400C09BFECF1092910081E088BB08955D
:100370001092A00081E08093A10080EC99EF90930F
:10038000A5008093A400C89BFECF1092A10081E03D
:1003900089BB0895109211021092100280911002F0
:1003A00090911102892BD1F308950F931F93CF934E
:1003B000DF9387E090E09093150280931402C1E0F0
:1003C000D0E07F9B0DC09E0102C0220F331F8A9593
:1003D000E2F7C90190910A02892B80930A020DC0AD
:1003E0009E0102C0220F331F8A95E2F7C901809552
:1003F00090910A02892380930A02CCDFA7DFA6DF4F
:10040000B7DFB6DF809114029091150201979093A7
:100410001502809314029923A4F680910A028E3E5D
:1004200009F054C0109219021092180207E010E06F
:10043000C1E0D0E005C0049719F410920F0246C045
:100440000093140210931502802F7F9B11C0E0913E
:100450001802F0911902E55FFD4F9E0102C0220FC4
:10046000331F8A95E2F7C9019081892B808311C0DF
:10047000E0911802F0911902E55FFD4F9E0102C064
:10048000220F331F8A95E2F7C90180959081892355
:10049000808380DF5BDF5ADF6BDF6ADF80911402CD
:1004A000909115020197909315028093140299235D
:1004B00064F68091180290911902019690931902A6
:1004C00080931802853091050CF4B5CF8BE092E053
:1004D000DF91CF911F910F9108955098589A83E022
:1004E00080936900E89A08951F920F920FB60F92B9
:1004F00011248F939F9381E090E090931102809359
:1005000010029F918F910F900FBE0F901F90189522
:10051000A1E21A2EAA1BBB1BFD010DC0AA1FBB1F07
:10052000EE1FFF1FA217B307E407F50720F0A21B79
:10053000B30BE40BF50B661F771F881F991F1A94E6
:1005400069F760957095809590959B01AC01BD0110
:10055000CF0108950F931F93CF93DF93869F800160
:10056000879F100D969F100D1124C8010DD0EC012E
:10057000009721F0A80160E070E027D1CE01DF9163
:10058000CF911F910F9108950F931F93CF93DF93F6
:100590008230910510F482E090E0E0911C02F0912D
:1005A0001D0220E030E0A0E0B0E0309719F140817A
:1005B00051810281138148175907C8F084179507A4
:1005C00069F4109731F012960C93129713961C93BE
:1005D00027C000931C0210931D0222C02115310573
:1005E00019F04217530718F49A01BD01EF01DF011A
:1005F000F801DBCF21153105F9F0281B390B243028
:10060000310580F48A819B816115710521F0FB0120
:100610009383828304C090931D0280931C02FE0189
:10062000329644C0FE01E20FF31F81939193225052
:100630003109398328833AC020911A0230911B0274
:10064000232B41F4209102023091030230931B02CC
:1006500020931A02209100023091010221153105E8
:1006600041F42DB73EB74091040250910502241B7E
:10067000350BE0911A02F0911B02E217F307A0F488
:100680002E1B3F0B2817390778F0AC014E5F5F4FE8
:100690002417350748F04E0F5F1F50931B024093FD
:1006A0001A028193919302C0E0E0F0E0CF01DF9164
:1006B000CF911F910F910895CF93DF93009709F485
:1006C00081C0FC01329713821282A0911C02B0916A
:1006D0001D02109781F420813181820F931F209198
:1006E0001A0230911B022817390751F5F0931B02AB
:1006F000E0931A0267C0ED0120E030E0CE17DF077B
:1007000040F44A815B819E0141155105F1F0EA01F7
:10071000F5CFD383C28340815181840F951FC817C1
:10072000D90759F488819981840F951F0296918386
:1007300080838A819B81938382832115310529F4EB
:10074000F0931D02E0931C023DC0E901FB83EA83A4
:1007500049915991C40FD51FEC17FD0761F48081B1
:100760009181840F951F0296E90199838883828184
:1007700093819B838A83E0E0F0E012968D919C91B7
:100780001397009719F0FD01DC01F7CF8D919C9133
:1007900011979D012E5F3F4F820F931F20911A02E8
:1007A00030911B022817390769F4309729F4109209
:1007B0001D0210921C0202C013821282B0931B020F
:1007C000A0931A02DF91CF910895DC0101C06D93CF
:0C07D00041505040E0F70895F894FFCF2E
:0807DC0000001E0220000000D5
:00000001FF
