:100000000C9472000C94AF010C9493000C94930028
:100010000C9493000C9493000C9493000C94930014
:100020000C9493000C9493000C9493000C94930004
:100030000C9493000C9493000C9493000C949300F4
:100040000C9493000C9493000C9493000C949300E4
:100050000C9493000C9493000C9493000C949300D4
:100060000C9493000C9493000C9493000C949300C4
:100070000C9493000C9493000C9493000C949300B4
:100080000C9493000C9493000C9493000C949300A4
:100090000C9493000C9493000C9493000C94930094
:1000A0000C9493000C9493000C9493000C94930084
:1000B0000C9493000C9493000C9493000C94930074
:1000C0000C9493000C9493000C9493000C94930064
:1000D0000C9493000C9493000C9493000C94930054
:1000E0000C94930011241FBECFEFD1E2DEBFCDBF31
:1000F00000E00CBF12E0A0E0B2E0E6EAF3E000E0CE
:100100000BBF02C007900D92A430B107D9F722E0CF
:10011000A4E0B2E001C01D92A430B207E1F70E9452
:10012000C6010C94D1010C9400008FEF84B981B901
:1001300087B908955098589A83E080936900E89AA7
:100140001092C10078940895FC01DB01413409F05C
:100150007FC085B18D6F85B980818434F1F085349D
:1001600038F4823491F08334A0F4813449F509C025
:100170008634D9F08634A8F08734D9F0883401F574
:100180001CC082B18A6F82B91BC082B18E6382B9F2
:1001900017C082B1866682B913C082B18E6E82B9F1
:1001A0000FC082B18E6E82B90BC082B1826782B9F4
:1001B00007C082B18C6F82B903C082B18A6B82B9E9
:1001C00085E38A95F1F7000012B885B1847085B98E
:1001D00085B18E6785B98C918434F1F0853438F41B
:1001E000823491F08334A0F4813449F509C0863417
:1001F000D9F08634A8F08734D9F0883401F51CC0D2
:1002000082B18A6F82B91BC082B18E6382B917C076
:1002100082B1866682B913C082B18E6E82B90FC078
:1002200082B1866782B90BC082B1826782B907C08A
:1002300082B18C6F82B903C082B18A6B82B985E3C7
:100240008A95F1F7000012B885B1887085B981C030
:10025000433409F07EC085B1876F85B980818434CD
:10026000F1F0853438F4823491F08334A0F4813491
:1002700049F509C08634D9F08634A8F08734D9F01E
:10028000883401F51CC088B18A6F88B91BC088B159
:100290008E6388B917C088B1866688B913C088B1E3
:1002A0008E6E88B90FC088B18E6E88B90BC088B1C8
:1002B000826788B907C088B18C6F88B903C088B1DC
:1002C0008A6B88B985E38A95F1F7000018B885B183
:1002D000887085B985B18B6785B98C918434F1F0CC
:1002E000853438F4823491F08334A0F4813449F5B4
:1002F00009C08634D9F08634A8F08734D9F0883420
:1003000001F51CC088B18A6F88B91BC088B18E63A3
:1003100088B917C088B1866688B913C088B18E6E57
:1003200088B90FC088B1866788B90BC088B1826769
:1003300088B907C088B18C6F88B903C088B18A6B4F
:1003400088B985E38A95F1F7000018B885B1847003
:1003500085B980910002813309F4F8CE08951F9287
:100360000F920FB60F9211248F9380910002813368
:1003700021F480E38093000203C081E380930002B4
:100380008F910F900FBE0F901F9018950E949500AF
:1003900041E461E072E0CB010E94A40080E090E0C3
:0603A0000895F894FFCF60
:0403A60031410000E1
:00000001FF
